:020000040800F2
:1000000000000220B5180008A9170008B71700085B
:10001000BD170008C3170008C9170008000000003A
:10002000000000000000000000000000CF170008E2
:10003000DD17000800000000EB170008F9170008A2
:100040000519000805190008051900080519000818
:100050000519000805190008051900080519000808
:1000600005190008051900080519000805190008F8
:1000700005190008051900080519000805190008E8
:1000800005190008051900080519000805190008D8
:1000900005190008051900080519000805190008C8
:1000A00005190008051900080519000805190008B8
:1000B00005190008051900080519000805190008A8
:1000C0000519000805190008051900080519000898
:1000D0000519000805190008051900080519000888
:1000E0000519000805190008051900080519000878
:1000F0000519000805190008051900080519000868
:100100000519000805190008051900080519000857
:100110000519000805190008051900080519000847
:100120000519000805190008051900080519000837
:100130000519000800000000000000000519000873
:100140000519000805190008051900089517000889
:100150000519000805190008051900080519000807
:1001600005190008051900080519000805190008F7
:10017000051900080519000805190008000000000D
:100180000000000005190008000000000000000049
:100190000519000800000000000000000519000813
:1001A0000000000000000000000000000519000829
:1001B00005190008051900080519000805190008A7
:0401C0000519000815
:1001C40010B5054C237833B9044B13B10448AFF38D
:1001D40000800123237010BD1400002000000000E3
:1001E400B41A000808B5034B1BB103490348AFF325
:1001F400008008BD0000000018000020B41A0008A8
:1002040080B483B000AF0346FB71094997F9073006
:100214005B0997F9072002F01F02012000FA02F29D
:1002240041F8232000BF0C37BD465DF8047B7047BE
:1002340000E100E080B483B000AF03463960FB7195
:1002440097F90730002B0DDA0F4997F90730DBB225
:1002540003F00F03043B3A68D2B21201D2B20B444A
:100264001A760BE0094A97F9073018463B68DBB267
:100274001B01D9B213180A4683F8002300BF0C37B8
:10028400BD465DF8047B704700ED00E000E100E04E
:1002940080B592B002AF78607F4B1B78632B01DD91
:1002A40001233B634FF0A0435B694FF0A042926986
:1002B400002A0CBF01220022D2B21340002B14BF2B
:1002C40001230023DBB2002B40F00F840221786865
:1002D40001F02CF90346002B07D04FF0A0424FF059
:1002E400A0435B6903F0020353614FF40021786873
:1002F40001F01CF90346002B00F0D280674B9A6989
:10030400664BDB6913401B0C9BB2FB6300233B6110
:10031400FB6B002B00F0C480FB6B03F00103002B8C
:1003240000F0B3803B6903F1207358335B019A6892
:100334005A4B5B691340FB62FB6A03F00103002B19
:100344001AD03B6903F1207358335B011A46012329
:1003540093607B680022C3F89C203B6903F12073FF
:1003640058335B011A463B6903F1207358335B0130
:100374001B6843F400131360FB6A03F00803002BAB
:100384005BD0454B1B78282B01DD0123BB627B68C6
:100394000C33FB60FB681A787B681A70FB685A7828
:1003A4007B685A70FB6802331B789AB2FB6803338C
:1003B4001B789BB21B029BB213449AB27B685A808F
:1003C400FB6804331B789AB2FB6805331B789BB235
:1003D4001B029BB213449AB27B689A80FB68063373
:1003E4001B789AB2FB6807331B789BB21B029BB243
:1003F40013449AB27B68DA807B680122C3F89C209C
:100404007B681B7803F01F03012B0BD0022B0BD04E
:10041400002B00D009E07B6893E80600786800F0C0
:10042400CFFE02E000BF00E000BF3B6903F1207390
:1004340058335B011A4608239360FB6A03F01003E8
:10044400002B07D03B6903F1207358335B011A4634
:1004540010239360FB6A03F02003002B07D03B6951
:1004640003F1207358335B011A4620239360FB6A1F
:1004740003F40053002B08D03B6903F12073583375
:100484005B011A464FF4005393603B6901333B61AF
:10049400FB6B5B10FB633BE7C402002000080050C9
:1004A4004FF48021786801F041F80346002B00F0F6
:1004B4003D819D4B9A699C4BDB6913409BB2FB6366
:1004C40000233B61FB6B002B00F03081FB6B03F0DE
:1004D4000103002B00F021813B6903F120734833B1
:1004E4005B019A68904B19698F4B586B3B6903F019
:1004F4000F0320FA03F3DB0103F080030B431340E3
:10050400FB62FB6A03F00103002B4DD03B6903F04F
:100514000F03012202FA03F37B628349824B5A6B75
:100524007B6ADB4313404B633B6903F1207348331D
:100534005B011A46012393607B68D3F89C30022B3D
:1005440022D13B69DBB21946786800F09DFF7B68D5
:100554000522C3F89C207B680022DA607B680022B5
:10056400C3F898207B680022C3F88C203B69002BD9
:100574001AD17B68D3F89430009300230022002121
:10058400786800F07BFE0FE07B68D3F89C30042B86
:1005940004D07B68D3F89C30002B05D13B69DBB2D7
:1005A4001946786800F070FFFB6A03F00803002B1B
:1005B40007D03B6903F1207348335B011A460823D3
:1005C4009360FB6A03F01003002B07D03B6903F12F
:1005D400207348335B011A4610239360FB6A03F0CF
:1005E4004003002B07D03B6903F1207348335B01C0
:1005F4001A4640239360FB6A03F00203002B07D0E2
:100604003B6903F1207348335B011A46022393606C
:10061400FB6A03F08003002B7FD07B68D3F898201B
:100624007B68D3F894309A4200F261827B68D3F8F5
:1006340094207B68D3F89830D31ABB637B681B7A09
:100644001A46BB6B9A4202D27B681B7ABB63BB6BB4
:1006540003339B087B633B6903F1207348335B01DD
:100664009B699AB27B6B9A420ED37B68D3F898202D
:100674007B68D3F894309A4206D27B68D3F89430DE
:10068400002B01D0012300E00023002B2FD07B6836
:10069400D3F894207B68D3F89830D31ABB637B6873
:1006A4001B7A1A46BB6B9A4202D27B681B7ABB63E5
:1006B400BB6B03339B087B637B68D3F890103B6967
:1006C4001A46BB6B9BB2786800F032FC7B68D3F8A7
:1006D4009020BB6B1A447B68C3F890207B68D3F8E6
:1006E4009820BB6B1A447B68C3F89820B3E77B68F7
:1006F400D3F894207B68D3F898309A420DD83B699C
:1007040003F00F03012202FA03F33B620649064B8E
:100714005A6B3B6ADB4313404B633B6901333B61D8
:10072400FB6B5B10FB63CDE6000800504FF000410B
:10073400786800F0FBFE0346002B0DD0AD4AAD4BAC
:100744005B6823F0010353604FF0A0424FF0A043D5
:100754005B6903F0004353614FF40061786800F073
:10076400E5FE0346002B18D0A24B9B6803F001035F
:10077400012B0CBF01230023DBB2002B05D09E4AC2
:100784009D4B1B6843F0010313604FF0A0424FF0F0
:10079400A0435B6903F4006353614FF480517868AC
:1007A40000F0C4FE0346002B00F09480914A914B64
:1007B4005B6823F0010353604FF0A0434FF484625D
:1007C4001A614FF0A0431B6903F02003202B0CBFD8
:1007D40001230023DBB2002B00D0F2E70023BB602F
:1007E400BB68052B33DCBB6803F1207348335B0122
:1007F4001A464FF67F339360BB6803F12073483386
:100804005B011A46BB6803F1207348335B011B6824
:1008140023F400131360BB6803F1207358335B01A6
:100824001A464FF67F339360BB6803F12073583345
:100834005B011A46BB6803F1207358335B011B68E4
:1008440023F400131360BB680133BB60C8E7694A33
:10085400684BDB6943F00113D361664A654B5B69FE
:1008640043F4005343F02B035361624A614B1B6909
:1008740043F00B0313615F4A5E4B1B6823F4FE6372
:1008840013605E4B1B6803F00043B3F1004F14BFC9
:1008940001230023DBB2002B14D0584B00221A6131
:1008A400564A564B1B6943F400231361534A534B76
:1008B4001B6943F018031361504A504B1B6943F002
:1008C400C04313614FF0A0424FF0A0435B6903F4AF
:1008D400805353614FF40051786800F027FE0346BB
:1008E400002B4BD0464A464B1B6823F4FF6323F08E
:1008F400070313603F4B9B6803F00603042B0CBFF4
:1009040001230023DBB2002B05D03D4A3C4B1B687E
:1009140043F003031360374A364B5B6843F4807338
:1009240053600623FB614FF0A0424FF0A043DB6805
:1009340023F47053D3604FF0A0414FF0A043DA6822
:10094400FB699B0203F470531343CB600023002222
:100954000021786800F046FA00230122002178681B
:1009640000F040FA7B680022C3F89C204FF0A042BC
:100974004FF0A0435B6903F400535361102178687E
:1009840000F0D4FD0346002B5CD04FF0A0424FF0A2
:10099400A0439B6923F0100393614FF0A0431B6AAB
:1009A400BB61BB6903F00F033B61BB695B0C03F0E4
:1009B4000F03022B26D1BA6947F6F0731340002BBC
:1009C40038D07B6803F10C01BB691B099BB2C3F3EC
:1009D4000A039BB21A46786800F084FA7B68D3F85D
:1009E4008C20BB691B09C3F30A031A447B68C3F850
:1009F4008C201FE000080050000E0050000B005037
:100A040000090050BB695B0C03F00F03062B11D1E6
:100A14007B680C3308221946786800F063FA7B6817
:100A2400D3F88C20BB691B09C3F30A031A447B68FF
:100A3400C3F88C204FF0A0424FF0A0439B6943F0D1
:100A4400100393610821786800F070FD0346002BC1
:100A540007D04FF0A0424FF0A0435B6903F00803B6
:100A640053614FF48011786800F060FD0346002B59
:100A740007D04FF0A0424FF0A0435B6903F480130A
:100A840053614FF40011786800F050FD0346002BC9
:100A940007D04FF0A0424FF0A0435B6903F400136A
:100AA40053614FF08041786800F040FD0346002B0D
:100AB40007D04FF0A0424FF0A0435B6903F080439E
:100AC40053610421786800F031FD0346002B0FD0F8
:100AD4004FF0A0435B687B614FF0A0414FF0A0430F
:100AE4005A687B6913434B6002E000BF00E000BF1B
:100AF4004037BD4680BD00BF80B586B000AF78608A
:100B0400B14AB14B1B6B43F001031363AF4AAF4BC4
:100B14001B6843F0287343F400331360AB4AAB4BB8
:100B24009B6843F07C7343F440339360A74AA74B1C
:100B34005B6A43F00A1343F42A435362A24AA24B6A
:100B44005B6B43F0800353639F4A9F4B5B6C43F49E
:100B54008043536400214320FFF76CFB4320FFF7DD
:100B64004FFB4FF0A0424FF0A0439B6823F00103DA
:100B740093604FF0A0424FF0A043DB6843F0400382
:100B8400D3604FF0A0431B69DB43DB0FDBB2002BC8
:100B940000D0F6E74FF0A0424FF0A0431B6943F0AA
:100BA400010313614FF0A0431B6903F00103012B00
:100BB4000CBF01230023DBB2002B00D0F2E74FF07F
:100BC400A0424FF0A0439B6B43F4803393634FF0F8
:100BD400A0424FF0A043DB6843F08043D36000237E
:100BE400FB75FB7D0E2B0BD84FF0A042FB7D4033F1
:100BF4009B00134400225A60FB7D0133FB75F0E730
:100C04004FF0A0424FF0A0439B6B43F40013936357
:100C14006F4A6F4B1B6823F0010313606D4A6D4BE1
:100C24001B6823F4C05313606A4A6A4B1B6843F081
:100C3400030313604FF0A0424FF0A0431B6943F439
:100C4400806313614FF0A0424FF0A0431B6943F04F
:100C5400200313614FF0A0431B6903F02003202BF2
:100C64000CBF01230023DBB2002B00D0F2E74FF0CE
:100C7400A04310221A614FF0A0431B6903F0100334
:100C8400102B0CBF01230023DBB2002B00D0F2E7B2
:100C9400504B00221A614F4B00225A614D4B0022E7
:100CA400DA6100233B613B69052B1CDC3B6903F1E2
:100CB400207348335B011A46002313603B6903F138
:100CC400207348335B011A46002313613B6903F127
:100CD400207348335B011A464FF67F3393603B69B8
:100CE40001333B61DFE70023FB60FB68052B1CDC61
:100CF400FB6803F1207358335B011A460023136029
:100D0400FB6803F1207358335B011A460023136117
:100D1400FB6803F1207358335B011A464FF67F33A7
:100D24009360FB680133FB60DFE72A4A294B1B69A8
:100D340023F4807313614FF0A04300229A614FF0B3
:100D4400A0436FF080425A614FF0A0424FF0A0439D
:100D54009B6943F0100393614FF0A0414FF0A0430F
:100D64009A691D4B13438B614FF0A0424FF0A0438F
:100D74009B6943F0804343F004039361154A154B88
:100D84005B6843F0020353604FF0A04380225A6231
:100D94004FF0A043114A9A624FF0A043104AC3F89F
:100DA40004210C4A0B4B5B6823F0020353604FF0A1
:100DB400A0424FF0A0439B6843F00103936000BF3F
:100DC4001837BD4680BD00BF003802400000024015
:100DD400003800500008005000383C80800040007B
:100DE400C000800080B485B000AFF860B9601146DF
:100DF4001A460B46FB711346BB71FB79002B36D0A8
:100E04003749374BDA69BB6803F00F03012000FA56
:100E140003F39BB21343CB61BB6803F120734833E4
:100E24005B011B6803F40043002B0CBF0123002368
:100E3400DBB2002B4ED0BB6803F1207348335B0157
:100E44001846BB6803F1207348335B011A68FB68DA
:100E54001B7A1946BB799B041943BB689B050B435A
:100E6400134343F0805343F40043036032E01C49CE
:100E74001B4BDA69BB6803F00F03012000FA03F38C
:100E84001B041343CB61BB6803F1207358335B012C
:100E94001B6803F40043002B0CBF01230023DBB2C7
:100EA400002B17D0BB6803F1207358335B0119463C
:100EB400BB6803F1207358335B011A68FB681B7A23
:100EC4001846BB799B040343134343F0805343F414
:100ED40000430B6000BF1437BD465DF8047B7047C8
:100EE4000008005080B489B000AFF860B9601346C0
:100EF400FB80BB68FB61FB8803339B087B61002399
:100F0400BB61BA697B699A420AD2084B1A68FB69C9
:100F14001A60FB690433FB61BB690133BB61F0E711
:100F240000BF2437BD465DF8047B704700100050B5
:100F340080B489B000AFF860B9607A607B80BB6828
:100F4400FB617B8803339B087B610023BB61BA6927
:100F54007B699A420FD27B6803F5A02301331B03FC
:100F64001A46FB691B681360FB690433FB61BB69A8
:100F74000133BB61EBE700BF2437BD465DF8047B5A
:100F8400704780B483B000AF786039603B681A68FA
:100F94007B681B689A4201D23B6800E07B68184674
:100FA4000C37BD465DF8047B7047000080B58AB0FD
:100FB40002AFF8603B1D83E80600FB881B12013B6F
:100FC4000E2B00F2B88001A252F823F00D10000895
:100FD400231000084F1000083B1100083B110008C3
:100FE4003B1100083B1100083B1100083B110008AD
:100FF4003B1100083B1100083B1100083B1100089D
:101004003B11000839100008FB6803F1A002FB68DB
:10101400C3F89020FB681222C3F8942057E0FB68C1
:1010240003F1B202FB68C3F89020FB682922C3F8DD
:1010340094204CE0FB6803F1DB02FB68C3F89020CA
:10104400FB680C22C3F8942041E0FB88DBB2052B3B
:1010540073D801A252F823F0CF100008CF10000873
:10106400CF10000875100008CF100008CF1000083A
:10107400344B1B68FB61334B1B680433BB61314B3E
:101084001B6808337B61FA697B691344FB61FB6964
:10109400002B0FD0FB6803F1E9020823F969F86813
:1010A40000F052F8FB6803F1F9020423B969F86807
:1010B40000F04AF8FB6803F1E702FB68C3F89020EC
:1010C400FB681A22C3F8942000E000BF00BFFB684D
:1010D400D3F89430002B22D07B89002B1FD0FB68DF
:1010E4000222C3F89C20FB6894337A893A6107F1A1
:1010F400100211461846FFF744FF03461A68FB68BE
:10110400C3F89420FB68D3F89020FB68D3F894309C
:101114000093134600220121F86800F0AFF87B89A0
:10112400002B0BD100230093002300220121F86837
:1011340000F0A4F802E000BF00E000BF2037BD4685
:1011440080BD00BF107AFF1F80B487B000AFF86085
:10115400B9607A60FB700023FB75FA7DFB789A42D4
:1011640028DABB681B0F092B0BD8FB7D5B001A46E2
:101174007B681344BA68120FD2B23032D2B21A70FA
:101184000AE0FB7D5B001A467B681344BA68120FC1
:10119400D2B23732D2B21A70BB681B01BB60FB7D7E
:1011A4005B0001337A68134400221A70FB7D01331B
:1011B400FB75D2E700BF1C37BD465DF8047B704762
:1011C40080B588B002AFF8603B1D83E806003B7928
:1011D40003F06003202B49D0402B47D0002B00D0D4
:1011E40045E07B79092B3FD801A252F823F000BFD8
:1011F4006D1200086D1200086D1200086D120008CF
:101204006D1200082B1200081D1200086D12000850
:101214006D1200086D1200083B1D93E80600F86883
:10122400FFF7C4FE21E0FB88DBB203F07F03FB750C
:10123400114A114B1B6823F4FE6313600E490E4BD5
:101244001A68FB7D1B0103F4FE6313430B60FB6808
:101254000422C3F89C2000230093002300220121D0
:10126400F86800F00BF800E000BF00E000BF00BF2A
:101274001837BD4680BD00BF0008005080B487B059
:1012840000AFF8607B600B46FB721346BB72FB7ABF
:10129400002B00F09A803B6A002B2FD1BB7A03F11C
:1012A400207348335B011A46BB7A03F12073483339
:1012B4005B011B6923F0FF5323F4C0131361BB7A52
:1012C40003F1207348335B011A46BB7A03F12073A0
:1012D40048335B011B6943F400231361BB7A03F1B8
:1012E400207348335B011A46BB7A03F120734833F9
:1012F4005B011B69DB0CDB04136148E0BB7A03F17F
:10130400207348335B011A46BB7A03F120734833D8
:101314005B011B69DB0CDB041361BB7A03F12073F3
:1013240048335B011A46BB7A03F1207348335B01EF
:101334001B6923F0FF5323F4C0131361FB681B7A6A
:101344001A463B6A9A4202D2FB681B7A3B62BB7A1A
:1013540003F1207348335B011A46BB7A03F120730F
:1013640048335B011B6943F400231361BB7A03F127
:10137400207348335B011946BB7A03F12073483369
:101384005B011A693B6AC3F3120313430B61BB7A13
:1013940003F1207348335B011A46BB7A03F12073CF
:1013A40048335B011B6843F0044313603B6A002B22
:1013B40061D03449334B5A6BBB7A03F00F030120DD
:1013C40000FA03F313434B6355E0BB7A03F1207334
:1013D40058335B011A46BB7A03F1207358335B011F
:1013E4001B69DB0CDB041361BB7A03F120735833F4
:1013F4005B011A46BB7A03F1207358335B011B6906
:1014040023F0FF5323F4C01313613B6A002B02D073
:10141400FB681B7A3B62BB7A03F1207358335B0190
:101424001A46BB7A03F1207358335B011B6943F4FA
:1014340000231361BB7A03F1207358335B0119460F
:10144400BB7A03F1207358335B011B69FA68127A83
:1014540013430B61BB7A03F1207358335B011A46C3
:10146400BB7A03F1207358335B011B6843F00443D8
:10147400136001237B6100BF1C37BD465DF8047B0C
:10148400704700BF0008005080B483B000AF78609C
:101494000B46FB70FB7803F1207348335B011B6838
:1014A400002B04DBFB78002B01D0012300E0002398
:1014B400002B0ED0FB7803F1207348335B011A46EE
:1014C400FB7803F1207348335B011B6823F08043EE
:1014D4001360FB7803F1207348335B011A46FB78F1
:1014E40003F1207348335B011B6843F4001313605A
:1014F4000D4B00221A610C4A0B4B1B6943F4002369
:101504001361094A084B1B6943F018031361064A27
:10151400054B1B6943F0C043136100BF0C37BD4644
:101524005DF8047B704700BF000B005080B483B0AB
:1015340000AF786039604FF0A0435A694FF0A04380
:101544009B691A403B681A403B689A4205D1184B84
:101554001B78632B01DC012300E00023002B12D055
:10156400134B1B7819464FF0A0435A694FF0A04320
:101574009B6913400F4A42F821300D4B1B7801330D
:10158400DAB20B4B1A704FF0A0435A694FF0A043E4
:101594009B691A403B681A403B689A420CBF01237E
:1015A4000023DBB218460C37BD465DF8047B704758
:1015B400C40200203401002080B400AF354A354B0A
:1015C4001B6C43F080531364334A334B1B6843F45E
:1015D40080431360314A314BD3F8883043F47003AD
:1015E400C2F888302B4A2B4B1B6843F480331360BA
:1015F400284B1B6803F40033002B0CBF012300238A
:10160400DBB2002B00D0F3E7224B254A5A60214A73
:10161400204B9B6893601F4A1E4B9B6843F4004316
:1016240093601C4A1B4B9B6843F4A0539360194A74
:10163400184B1B6843F080731360164B1B6803F050
:101644000073002B0CBF01230023DBB2002B00D05E
:10165400F3E7144B40F205721A600E4A0D4B9B6877
:1016640023F0030393600B4A0A4B9B6843F0020385
:101674009360084B9B6803F00C03082B14BF0123F1
:101684000023DBB2002B00D0F3E700BFBD465DF8BA
:10169400047B7047003802400070004000ED00E019
:1016A40004244006003C024080B400AF0E4A0E4BB6
:1016B4001B6B43F0020313630B4A0B4B1B6B43F08E
:1016C40004031363094A094B1B6843F48043136002
:1016D400064A064B1B6843F08053136000BFBD46A7
:1016E4005DF8047B704700BF0038024000040240EC
:1016F400F0B583B000AF78607B6840221A727B68D3
:10170400204A03F1A00415460FCD0FC42B68238093
:101714007B681D4A144603F1B20E04F1200C754691
:1017240026460FCE28606960AA60EB6010340EF183
:10173400100E6445F3D17246234603CB106051600A
:101744001B7813727B68114A03F1DB04134607CB41
:1017540020606160A2607B68E73300221A605A60EF
:101764009A60DA601A615A611A837B681A2283F8D4
:10177400E7207B68032283F8E8207B6818460C374F
:10178400BD46F0BDCC1A0008E01A00080C1B000886
:1017940080B500AF0248FEF77BFD00BF80BD00BFEF
:1017A4003000002080B400AF00BFBD465DF8047B6C
:1017B400704780B400AFFEE780B400AFFEE780B4AA
:1017C40000AFFEE780B400AFFEE780B400AF00BF17
:1017D400BD465DF8047B704780B400AF00BFBD46D2
:1017E4005DF8047B704780B400AF00BFBD465DF870
:1017F400047B704780B400AF00BFBD465DF8047B36
:101804007047000080B582B000AF00F07BF8FFF7AE
:10181400D3FE00F0ADF8FFF747FF1348FFF76CF96C
:1018240000237B60114B1B6903F40053002B14BF8E
:1018340001230023DBB2002B0CD00D4A0C4B9B6917
:1018440043F0800393610A4A094B9B6943F4804344
:10185400936105E0064A064B9B6943F400039361D8
:101864007B6801337B60DDE7300000200008024024
:101874000004024080B582B000AF786039607B68B4
:10188400012B07D13B684FF6FF72934202D1034804
:10189400FFF72EFF00BF0837BD4680BD3000002093
:1018A40080B500AF4FF6FF710120FFF7E3FF80BD65
:1018B400DFF834D0002103E00C4B5B584350043173
:1018C4000B480C4B42189A42F6D30B4A02E0002311
:1018D40042F8043B094B9A42F9D300F013F800F0A4
:1018E400C3F8FFF78FFF704700000220241B000895
:1018F400000000201400002014000020C802002072
:10190400FEE7000080B400AF164A164BD3F88830C7
:1019140043F47003C2F88830134A134B1B6843F036
:1019240001031360104B00229A600F4A0E4B1B6890
:1019340023F0847323F4803313600B4B0B4A5A60F7
:10194400094A094B1B6823F480231360064B0022C9
:10195400DA60044B4FF000629A6000BFBD465DF848
:10196400047B704700ED00E0003802401030002492
:1019740080B487B000AF00233B6100237B61022366
:10198400FB600023BB6002237B60324B9B6803F047
:101994000C033B613B69042B07D0082B09D0002BB7
:1019A4003DD12D4B2D4A1A603DE02B4B2C4A1A6039
:1019B40039E0284B5B689B0D03F00103BB60254BAA
:1019C4005B6803F03F037B60BB68002B0CD0244AA8
:1019D4007B68B2FBF3F31F4A52689209C2F3080210
:1019E40002FB03F37B610BE01C4A7B68B2FBF3F35D
:1019F400184A52689209C2F3080202FB03F37B619E
:101A0400144B5B681B0C03F0030301335B00FB60A6
:101A14007A69FB68B2FBF3F30F4A136003E00E4BE1
:101A24000E4A1A6000BF0B4B9B681B0903F00F039F
:101A34000C4AD35CDBB23B61074B1A683B6922FA60
:101A440003F3054A136000BF1C37BD465DF8047BF1
:101A5400704700BF00380240000000200024F4005A
:101A640000127A000400002070B50D4E0D4CA41B2A
:101A7400A4100025A54209D10B4E0C4C00F018F817
:101A8400A41BA4100025A54205D170BD56F825302D
:101A940098470135EEE756F8253098470135F2E7C7
:101AA400181B0008181B0008181B0008201B00083E
:101AB400F8B500BFF8BC08BC9E467047F8B500BF37
:081AC400F8BC08BC9E46704707
:101ACC001201010200000040830450570002010281
:101ADC000301000009022900010100C032090400C1
:101AEC00000203000000092111010001224A000735
:101AFC000582030200050705010302000500000032
:0C1B0C00050F0C00010710020200000091
:081B1800E9010008A51800080E
:041B2000C5010008F3
:101B24000024F4000000000000000000010203048F
:041B3400060708098F
:04000005080018B522
:00000001FF
