:020000040800F2
:1000000000000220491700083D1600084B160008A2
:1000100051160008571600085D1600080000000081
:10002000000000000000000000000000631600084F
:1000300071160008000000007F1600088D160008E9
:1000400099170008991700089917000899170008D0
:1000500099170008991700089917000899170008C0
:1000600099170008991700089917000899170008B0
:1000700099170008991700089917000899170008A0
:100080009917000899170008991700089917000890
:100090009917000899170008991700089917000880
:1000A0009917000899170008991700089917000870
:1000B0009917000899170008991700089917000860
:1000C0009917000899170008991700089917000850
:1000D0009917000899170008991700089917000840
:1000E0009917000899170008991700089917000830
:1000F0009917000899170008991700089917000820
:10010000991700089917000899170008991700080F
:1001100099170008991700089917000899170008FF
:1001200099170008991700089917000899170008EF
:10013000991700080000000000000000991700084F
:100140009917000899170008991700082916000840
:1001500099170008991700089917000899170008BF
:1001600099170008991700089917000899170008AF
:100170009917000899170008991700080000000057
:1001800000000000991700080000000000000000B7
:1001900099170008000000000000000099170008EF
:1001A0000000000000000000000000009917000897
:1001B000991700089917000899170008991700085F
:0401C0009917000883
:1001C40010B5054C237833B9044B13B10448AFF38D
:1001D40000800123237010BD1400002000000000E3
:1001E4004819000808B5034B1BB103490348AFF392
:1001F400008008BD00000000180000204819000815
:1002040080B483B000AF0346FB71094997F9073006
:100214005B0997F9072002F01F02012000FA02F29D
:1002240041F8232000BF0C37BD465DF8047B7047BE
:1002340000E100E080B483B000AF03463960FB7195
:1002440097F90730002B0DDA0F4997F90730DBB225
:1002540003F00F03043B3A68D2B21201D2B20B444A
:100264001A760BE0094A97F9073018463B68DBB267
:100274001B01D9B213180A4683F8002300BF0C37B8
:10028400BD465DF8047B704700ED00E000E100E04E
:1002940080B594B002AF7860914B1B78632B2CDC53
:1002A4008F4B1B7819464FF0A0435A694FF0A04377
:1002B4009B6913408B4A42F82130894B1B781A46BC
:1002C400884B53F82230102B05D1874B1B78013310
:1002D400DAB2854B1A70824B1B781A46814B53F85D
:1002E4002230B3F5802F01D10123BB637C4B1B78F3
:1002F4000133DAB27A4B1A7001E001237B63786828
:1003040001F0A0F80346002B0CBF01230023DBB24D
:10031400002B40F07E84786801F094F8034603F0E3
:100324000203022B0CBF01230023DBB2002B07D0F6
:100334004FF0A0424FF0A0435B6903F00203536106
:10034400786801F07FF8034603F40023B3F5002F27
:100354000CBF01230023DBB2002B00F0C980634BE8
:100364009A69624BDB6913401B0C9BB27B640023CC
:100374007B617B6C002B00F0BB807B6C03F0010382
:10038400002B00F0A5807B6903F1207358335B01D7
:100394009A68564B5B6913403B633B6B03F0010364
:1003A400002B16D07B6903F1207358335B011A4686
:1003B400012393607B6903F1207358335B011A4670
:1003C4007B6903F1207358335B011B6843F400130A
:1003D40013603B6B03F00803002B51D07B680C3394
:1003E4003B613B691A787B681A703B695A787B6871
:1003F4005A703B6902331B789AB23B6903331B780A
:100404009BB21B029BB213449AB27B685A803B692D
:1004140004331B789AB23B6905331B789BB21B02E9
:100424009BB213449AB27B689A803B6906331B786B
:100434009AB23B6907331B789BB21B029BB21344ED
:100444009AB27B68DA807B681B7803F01F03012B68
:100454000BD0022B0BD0002B00D009E07B6893E873
:100464000600786800F0AEFE02E000BF00E000BFC6
:100474007B6903F1207358335B011A4608239360A8
:100484003B6B03F01003002B07D07B6903F120734F
:1004940058335B011A46102393603B6B03F020032F
:1004A400002B07D07B6903F1207358335B011A4694
:1004B400202393603B6B03F40053002B08D07B692B
:1004C40003F1207358335B011A464FF400539360D1
:1004D4007B6901337B617B6C5B107B6449E700BF04
:1004E40070020020E000002071020020000800508B
:1004F400786800F0A7FF034603F48023B3F5802F48
:100504000CBF01230023DBB2002B00F05F81AD4B55
:100514009A69AC4BDB6913409BB27B6400237B611B
:100524007B6C002B00F052817B6C03F00103002BE9
:1005340000F040817B6903F1207348335B019A68C2
:10054400A04B19699F4B586B7B6903F00F0320FA8A
:1005540003F3DB0103F080030B4313403B633B6B6A
:1005640003F00103002B6CD07B6903F00F0301221D
:1005740002FA03F3FB629349924B5A6BFB6ADB4327
:1005840013404B637B6903F1207348335B011A46C4
:10059400012393607B6903F1207348335B011B687B
:1005A400002B04DB7B69002B01D0012300E0002336
:1005B400002B0ED07B6903F1207348335B011A468C
:1005C4007B6903F1207348335B011B6823F080438C
:1005D40013607B6903F1207348335B011A467B691E
:1005E40003F1207348335B011B6843F40013136069
:1005F400754B00221A61744A734B1B6943F4002340
:100604001361714A704B1B6943F0180313616E4AFE
:100614006D4B1B6943F0C04313617B680022DA60B1
:100624007B680022C3F88C207B69002B09D17B688E
:10063400D3F894300093002300220021786800F05E
:10064400FBFD3B6B03F00803002B07D07B6903F130
:10065400207348335B011A46082393603B6B03F015
:100664001003002B07D07B6903F1207348335B012F
:100674001A46102393603B6B03F04003002B07D012
:100684007B6903F1207348335B011A46402393606E
:100694003B6B03F00203002B07D07B6903F120734B
:1006A40048335B011A46022393603B6B03F08003DB
:1006B400002B7FD07B68D3F898207B68D3F89430E4
:1006C4009A4200F2A8827B68D3F894207B68D3F81E
:1006D4009830D31A3B647B681B7A1A463B6C9A4267
:1006E40002D27B681B7A3B643B6C03339B08FB633D
:1006F4007B6903F1207348335B019B699AB2FB6BFE
:100704009A420ED37B68D3F898207B68D3F8943050
:100714009A4206D27B68D3F89430002B01D001238F
:1007240000E00023002B2FD07B68D3F894207B6853
:10073400D3F89830D31A3B647B681B7A1A463B6C17
:100744009A4202D27B681B7A3B643B6C03339B085E
:10075400FB637B68D3F890107B691A463B6C9BB2B1
:10076400786800F079FC7B68D3F890203B6C1A44DD
:100774007B68C3F890207B68D3F898203B6C1A44BC
:100784007B68C3F89820B3E77B68D3F894207B6830
:10079400D3F898309A420DD87B6903F00F030122F5
:1007A40002FA03F3BB620749064B5A6BBB6ADB438D
:1007B40013404B637B6901337B617B6C5B107B640F
:1007C400AEE600BF00080050000B0050786800F04F
:1007D40039FE034603F00043B3F1004F0CBF01237D
:1007E4000023DBB2002B0DD04A4A4A4B5B6823F04E
:1007F400010353604FF0A0424FF0A0435B6903F044
:1008040000435361786800F01DFE034603F400635F
:10081400B3F5006F0CBF01230023DBB2002B18D00B
:100824003C4B9B6803F00103012B0CBF0123002305
:10083400DBB2002B05D0384A374B1B6843F0010369
:1008440013604FF0A0424FF0A0435B6903F40063D0
:100854005361786800F0F6FD034603F48053B3F562
:10086400805F0CBF01230023DBB2002B00F09980D2
:10087400284A284B5B6823F0010353604FF0A043E0
:100884004FF484621A614FF0A0431B6903F0200304
:10089400202B0CBF01230023DBB2002B00D0F2E796
:1008A4000023FB60FB68052B38DCFB6803F1207335
:1008B40048335B011A464FF67F339360FB6803F1BC
:1008C400207348335B011A46FB6803F120734833F5
:1008D4005B011B6823F400131360FB6803F12073AE
:1008E40058335B011A464FF67F339360FB6803F17C
:1008F400207358335B011A46FB6803F120735833A5
:100904005B011B6823F400131360FB680133FB6075
:10091400C8E700BF00080050000E0050704A704B3A
:10092400DB6943F00113D3616D4A6D4B5B6943F49A
:10093400005343F02B035361694A694B1B6943F02D
:100944000B031361664A664B1B6823F4FE63136052
:10095400644B1B6803F00043B3F1004F14BF012341
:100964000023DBB2002B14D05E4B00221A615D4AD7
:100974005C4B1B6943F4002313615A4A594B1B69AE
:1009840043F018031361574A564B1B6943F0C043A5
:1009940013614FF0A0424FF0A0435B6903F480530E
:1009A4005361786800F04EFD034603F40053B3F539
:1009B400005F0CBF01230023DBB2002B47D04A4A5F
:1009C400494B1B6823F4FF6323F007031360444B74
:1009D4009B6803F00603042B0CBF01230023DBB246
:1009E400002B05D0404A404B1B6843F003031360BF
:1009F4003B4A3B4B5B6843F48073536006237B6242
:100A04004FF0A0424FF0A043DB6823F47053D3604F
:100A14004FF0A0414FF0A043DA687B6A9B0203F4D5
:100A240070531343CB60002300220021786800F048
:100A34006DFA002301220021786800F067FA4FF074
:100A4400A0424FF0A0435B6903F4005353617868FC
:100A540000F0F8FC034603F01003102B0CBF012335
:100A64000023DBB2002B63D0204B1B78192B01DD54
:100A740001233B624FF0A0424FF0A0439B6923F057
:100A8400100393614FF0A0431B6AFB61FB6903F001
:100A94000F037B61FB695B0C03F00F03022B27D16F
:100AA400FA6947F6F0731340002B39D07B6803F1E1
:100AB4000C01FB691B099BB2C3F30A039BB21A46E0
:100AC400786800F0A3FA7B68D3F88C20FB691B09D3
:100AD400C3F30A031A447B68C3F88C2020E000BFE8
:100AE40000080050000B0050000900507002002064
:100AF400FB695B0C03F00F03062B11D17B680C33ED
:100B040008221946786800F081FA7B68D3F88C20B3
:100B1400FB691B09C3F30A031A447B68C3F88C20DE
:100B24004FF0A0424FF0A0439B6943F01003936140
:100B3400786800F087FC034603F00803082B0CBF19
:100B440001230023DBB2002B07D04FF0A0424FF06B
:100B5400A0435B6903F008035361786800F072FCFA
:100B6400034603F48013B3F5801F0CBF0123002355
:100B7400DBB2002B07D04FF0A0424FF0A0435B69DB
:100B840003F480135361786800F05CFC034603F4BB
:100B94000013B3F5001F0CBF01230023DBB2002BAD
:100BA40007D04FF0A0424FF0A0435B6903F4001359
:100BB4005361786800F046FC034603F08043B3F1C8
:100BC400804F0CBF01230023DBB2002B07D04FF072
:100BD400A0424FF0A0435B6903F0804353617868FF
:100BE40000F030FC034603F00403042B0CBF012384
:100BF4000023DBB2002B0FD04FF0A0435B68BB6136
:100C04004FF0A0414FF0A0435A68BB6913434B60B7
:100C140002E000BF00E000BF4837BD4680BD00BF12
:100C240080B586B000AF7860B14AB14B1B6B43F01E
:100C340001031363AF4AAF4B1B6843F0287343F4BB
:100C440000331360AB4AAB4B9B6843F07C7343F4B3
:100C540040339360A74AA74B5B6A43F00A1343F4FB
:100C64002A435362A24AA24B5B6B43F08003536353
:100C74009F4A9F4B5B6C43F48043536400214320A1
:100C8400FFF7D8FA4320FFF7BBFA4FF0A0424FF02A
:100C9400A0439B6823F0010393604FF0A0424FF000
:100CA400A043DB6843F04003D3604FF0A0431B69CB
:100CB400DB43DB0FDBB2002B00D0F6E74FF0A042A2
:100CC4004FF0A0431B6943F0010313614FF0A043AD
:100CD4001B6903F00103012B0CBF01230023DBB2CA
:100CE400002B00D0F2E74FF0A0424FF0A0439B6BE3
:100CF40043F4803393634FF0A0424FF0A043DB688A
:100D040043F08043D3600023FB75FB7D0E2B0BD88F
:100D14004FF0A042FB7D40339B00134400225A60F5
:100D2400FB7D0133FB75F0E74FF0A0424FF0A04389
:100D34009B6B43F4001393636F4A6F4B1B6823F060
:100D4400010313606D4A6D4B1B6823F4C053136099
:100D54006A4A6A4B1B6843F0030313604FF0A042D6
:100D64004FF0A0431B6943F4806313614FF0A0422A
:100D74004FF0A0431B6943F0200313614FF0A043DD
:100D84001B6903F02003202B0CBF01230023DBB2DB
:100D9400002B00D0F2E74FF0A04310221A614FF06D
:100DA400A0431B6903F01003102B0CBF0123002385
:100DB400DBB2002B00D0F2E7504B00221A614F4BFC
:100DC40000225A614D4B0022DA6100233B613B69EA
:100DD400052B1CDC3B6903F1207348335B011A4685
:100DE400002313603B6903F1207348335B011A4607
:100DF400002313613B6903F1207348335B011A46F6
:100E04004FF67F3393603B6901333B61DFE7002397
:100E1400FB60FB68052B1CDCFB6803F12073583373
:100E24005B011A4600231360FB6803F120735833F7
:100E34005B011A4600231361FB6803F120735833E6
:100E44005B011A464FF67F339360FB680133FB6006
:100E5400DFE72A4A294B1B6923F4807313614FF09F
:100E6400A04300229A614FF0A0436FF080425A6180
:100E74004FF0A0424FF0A0439B6943F010039361ED
:100E84004FF0A0414FF0A0439A691D4B13438B616F
:100E94004FF0A0424FF0A0439B6943F0804343F0DE
:100EA40004039361154A154B5B6843F002035360D6
:100EB4004FF0A04380225A624FF0A043114A9A6235
:100EC4004FF0A043104AC3F804210C4A0B4B5B6853
:100ED40023F0020353604FF0A0424FF0A0439B68FD
:100EE40043F00103936000BF1837BD4680BD00BFC7
:100EF4000038024000000240003800500008005052
:100F040000383C8080004000C000800080B485B080
:100F140000AFF860B96011461A460B46FB711346E0
:100F2400BB71FB79002B36D03749374BDA69BB6884
:100F340003F00F03012000FA03F39BB21343CB61C8
:100F4400BB6803F1207348335B011B6803F400435F
:100F5400002B0CBF01230023DBB2002B4ED0BB6857
:100F640003F1207348335B011846BB6803F1207317
:100F740048335B011A68FB681B7A1946BB799B04EA
:100F84001943BB689B050B43134343F0805343F45D
:100F94000043036032E01C491B4BDA69BB6803F071
:100FA4000F03012000FA03F31B041343CB61BB6856
:100FB40003F1207358335B011B6803F40043002BD7
:100FC4000CBF01230023DBB2002B17D0BB6803F155
:100FD400207358335B011946BB6803F120735833FF
:100FE4005B011A68FB681B7A1846BB799B040343B0
:100FF400134343F0805343F400430B6000BF1437A2
:10100400BD465DF8047B70470008005080B489B089
:1010140000AFF860B9601346FB80BB68FB61FB88D6
:1010240003339B087B610023BB61BA697B699A42E5
:101034000AD2084B1A68FB691A60FB690433FB6126
:10104400BB690133BB61F0E700BF2437BD465DF8DF
:10105400047B70470010005080B489B000AFF86082
:10106400B9607A607B80BB68FB617B8803339B0833
:101074007B610023BB61BA697B699A420FD27B68AA
:1010840003F5A02301331B031A46FB691B68136095
:10109400FB690433FB61BB690133BB61EBE700BF50
:1010A4002437BD465DF8047B704780B483B000AF3D
:1010B400786039603B681A687B681B689A4201D281
:1010C4003B6800E07B6818460C37BD465DF8047B3E
:1010D4007047000080B588B002AFF8603B1D83E81C
:1010E4000600FB881B12013B062B65D801A252F8AF
:1010F40023F000BF151100082B110008331100085C
:10110400BD110008BD110008BD110008BD11000883
:10111400FB6803F19C02FB68C3F89020FB68122271
:10112400C3F8942018E07B69013302221A70FB880B
:10113400DBB2052B42D801A252F823F05911000862
:1011440059110008591100085911000859110008D3
:101154005911000800BF00BFFB68D3F89430002B7E
:101164001ED07B89002B1BD0FB6894337A893A61AB
:1011740007F1100211461846FFF797FF03461A6855
:10118400FB68C3F89420FB68D3F89020FB68D3F87D
:1011940094300093134600220121F86800F04CF8C3
:1011A4007B89002B0BD10023009300230022012113
:1011B400F86800F041F802E000BF00E000BF183713
:1011C400BD4680BD80B584B000AFF8603B1D83E8A8
:1011D40006003B7903F06003202B28D0402B26D057
:1011E400002B00D024E07B79092B1ED801A252F8F1
:1011F40023F000BF2F1200082F1200082F1200083E
:101204002F1200082F1200082F12000821120008C4
:101214002F1200082F1200082F1200083B1D93E81C
:101224000600F868FFF756FF00E000BF00E000BFCB
:1012340000BF1037BD4680BD80B487B000AFF860F2
:101244007B600B46FB721346BB72FB7A002B00F0EB
:101254009A803B6A002B2FD1BB7A03F12073483369
:101264005B011A46BB7A03F1207348335B011B69A7
:1012740023F0FF5323F4C0131361BB7A03F12073EB
:1012840048335B011A46BB7A03F1207348335B0190
:101294001B6943F400231361BB7A03F120734833C1
:1012A4005B011A46BB7A03F1207348335B011B6967
:1012B400DB0CDB04136148E0BB7A03F12073483391
:1012C4005B011A46BB7A03F1207348335B011B6947
:1012D400DB0CDB041361BB7A03F1207348335B013D
:1012E4001A46BB7A03F1207348335B011B6923F070
:1012F400FF5323F4C0131361FB681B7A1A463B6A3D
:101304009A4202D2FB681B7A3B62BB7A03F12073D8
:1013140048335B011A46BB7A03F1207348335B01FF
:101324001B6943F400231361BB7A03F12073483330
:101334005B011946BB7A03F1207348335B011A69D8
:101344003B6AC3F3120313430B61BB7A03F12073AB
:1013540048335B011A46BB7A03F1207348335B01BF
:101364001B6843F0044313603B6A002B61D034498B
:10137400334B5A6BBB7A03F00F03012000FA03F3DB
:1013840013434B6355E0BB7A03F1207358335B017D
:101394001A46BB7A03F1207358335B011B69DB0CDB
:1013A400DB041361BB7A03F1207358335B011A46E3
:1013B400BB7A03F1207358335B011B6923F0FF539D
:1013C40023F4C01313613B6A002B02D0FB681B7A21
:1013D4003B62BB7A03F1207358335B011A46BB7A34
:1013E40003F1207358335B011B6943F40023136139
:1013F400BB7A03F1207358335B011946BB7A03F1BE
:10140400207358335B011B69FA68127A13430B612A
:10141400BB7A03F1207358335B011A46BB7A03F19C
:10142400207358335B011B6843F0044313600123AA
:101434007B6100BF1C37BD465DF8047B704700BF6D
:101444000008005080B485B000AF78604FF0A0432E
:101454005A694FF0A0439B691340FB60154B1B78FE
:10146400002B0CD0134B1B78632B15DC114B1B7812
:10147400013B114A52F82320FB689A420CD00D4BD1
:101484001B7819460C4AFB6842F82130094B1B783B
:101494000133DAB2074B1A704FF0A0435A694FF088
:1014A400A0439B69134018461437BD465DF8047B7E
:1014B400704700BF70020020E000002080B400AF3D
:1014C400354A354B1B6C43F080531364334A334B1A
:1014D4001B6843F480431360314A314BD3F888309E
:1014E40043F47003C2F888302B4A2B4B1B6843F437
:1014F40080331360284B1B6803F40033002B0CBFAC
:1015040001230023DBB2002B00D0F3E7224B254A52
:101514005A60214A204B9B6893601F4A1E4B9B686C
:1015240043F4004393601C4A1B4B9B6843F4A05351
:101534009360194A184B1B6843F080731360164B71
:101544001B6803F00073002B0CBF01230023DBB2E4
:10155400002B00D0F3E7144B40F205721A600E4AD8
:101564000D4B9B6823F0030393600B4A0A4B9B6863
:1015740043F002039360084B9B6803F00C03082BB1
:1015840014BF01230023DBB2002B00D0F3E700BF1C
:10159400BD465DF8047B704700380240007000408F
:1015A40000ED00E004244006003C024080B400AF9B
:1015B4000E4A0E4B1B6B43F0020313630B4A0B4B97
:1015C4001B6B43F004031363094A094B1B6843F480
:1015D40080431360064A064B1B6843F08053136034
:1015E40000BFBD465DF8047B704700BF0038024071
:1015F40000040240B0B483B000AF78607B6840223E
:101604001A727B68064A03F19C0415460FCD0FC479
:101614002B6823807B6818460C37BD46B0BC7047E6
:101624006019000880B500AF0248FEF731FE00BF24
:1016340080BD00BF3000002080B400AF00BFBD46B5
:101644005DF8047B704780B400AFFEE780B400AF60
:10165400FEE780B400AFFEE780B400AFFEE780B4DD
:1016640000AF00BFBD465DF8047B704780B400AF97
:1016740000BFBD465DF8047B704780B400AF00BF77
:10168400BD465DF8047B704780B400AF00BFBD4623
:101694005DF8047B7047000080B582B000AF00F0B5
:1016A4007BF8FFF70BFF00F0ADF8FFF77FFF13485F
:1016B400FFF7B6FA00237B60114B1B6903F4005358
:1016C400002B14BF01230023DBB2002B0CD00D4AE6
:1016D4000C4B9B6943F0800393610A4A094B9B6955
:1016E40043F48043936105E0064A064B9B6943F447
:1016F400000393617B6801337B60DDE730000020E9
:10170400000802400004024080B582B000AF786057
:1017140039607B68012B07D13B684FF6FF72934217
:1017240002D10348FFF766FF00BF0837BD4680BDFE
:101734003000002080B500AF4FF6FF710120FFF7A5
:10174400E3FF80BDDFF834D0002103E00C4B5B588D
:10175400435004310B480C4B42189A42F6D30B4ABF
:1017640002E0002342F8043B094B9A42F9D300F00B
:1017740013F800F0C3F8FFF78FFF70470000022052
:10178400801900080000002014000020140000202C
:1017940074020020FEE7000080B400AF164A164B26
:1017A400D3F8883043F47003C2F88830134A134BDB
:1017B4001B6843F001031360104B00229A600F4A28
:1017C4000E4B1B6823F0847323F4803313600B4B9C
:1017D4000B4A5A60094A094B1B6823F4802313609F
:1017E400064B0022DA60044B4FF000629A6000BF9F
:1017F400BD465DF8047B704700ED00E00038024010
:101804001030002480B487B000AF00233B61002374
:101814007B610223FB600023BB6002237B60324BAD
:101824009B6803F00C033B613B69042B07D0082B36
:1018340009D0002B3DD12D4B2D4A1A603DE02B4B96
:101844002C4A1A6039E0284B5B689B0D03F00103B6
:10185400BB60254B5B6803F03F037B60BB68002BD8
:101864000CD0244A7B68B2FBF3F31F4A52689209F6
:10187400C2F3080202FB03F37B610BE01C4A7B68A2
:10188400B2FBF3F3184A52689209C2F3080202FB4E
:1018940003F37B61144B5B681B0C03F003030133FC
:1018A4005B00FB607A69FB68B2FBF3F30F4A1360D9
:1018B40003E00E4B0E4A1A6000BF0B4B9B681B09DA
:1018C40003F00F030C4AD35CDBB23B61074B1A688D
:1018D4003B6922FA03F3054A136000BF1C37BD4677
:1018E4005DF8047B704700BF003802400000002010
:1018F4000024F40000127A000400002070B50D4E9C
:101904000D4CA41BA4100025A54209D10B4E0C4C70
:1019140000F018F8A41BA4100025A54205D170BD41
:1019240056F8253098470135EEE756F825309847A4
:101934000135F2E7741900087419000874190008D5
:101944007C190008F8B500BFF8BC08BC9E46704777
:0C195400F8B500BFF8BC08BC9E46704708
:1019600012010102000000408304505700020102EE
:04197000030100006F
:08197400E90100083917000821
:04197C00C501000899
:101980000024F40000000000000000000102030435
:041990000607080935
:04000005080017498F
:00000001FF
