:020000040800F2
:1000000000000220CD1A0008C1190008CF1900080D
:10001000D5190008DB190008E119000800000000EC
:10002000000000000000000000000000E7190008C8
:10003000F519000800000000031A0008111A000852
:100040001D1B00081D1B00081D1B00081D1B0008B0
:100050001D1B00081D1B00081D1B00081D1B0008A0
:100060001D1B00081D1B00081D1B00081D1B000890
:100070001D1B00081D1B00081D1B00081D1B000880
:100080001D1B00081D1B00081D1B00081D1B000870
:100090001D1B00081D1B00081D1B00081D1B000860
:1000A0001D1B00081D1B00081D1B00081D1B000850
:1000B0001D1B00081D1B00081D1B00081D1B000840
:1000C0001D1B00081D1B00081D1B00081D1B000830
:1000D0001D1B00081D1B00081D1B00081D1B000820
:1000E0001D1B00081D1B00081D1B00081D1B000810
:1000F0001D1B00081D1B00081D1B00081D1B000800
:100100001D1B00081D1B00081D1B00081D1B0008EF
:100110001D1B00081D1B00081D1B00081D1B0008DF
:100120001D1B00081D1B00081D1B00081D1B0008CF
:100130001D1B000800000000000000001D1B00083F
:100140001D1B00081D1B00081D1B0008AD19000821
:100150001D1B00081D1B00081D1B00081D1B00089F
:100160001D1B00081D1B00081D1B00081D1B00088F
:100170001D1B00081D1B00081D1B000800000000BF
:10018000000000001D1B000800000000000000002F
:100190001D1B000800000000000000001D1B0008DF
:1001A0000000000000000000000000001D1B00080F
:1001B0001D1B00081D1B00081D1B00081D1B00083F
:0401C0001D1B0008FB
:1001C40010B5054C237833B9044B13B10448AFF38D
:1001D40000800123237010BD1400002000000000E3
:1001E400E41C000808B5034B1BB103490348AFF3F3
:1001F400008008BD0000000018000020E41C000876
:1002040080B483B000AF0346FB71094997F9073006
:100214005B0997F9072002F01F02012000FA02F29D
:1002240041F8232000BF0C37BD465DF8047B7047BE
:1002340000E100E080B483B000AF03463960FB7195
:1002440097F90730002B0DDA0F4997F90730DBB225
:1002540003F00F03043B3A68D2B21201D2B20B444A
:100264001A760BE0094A97F9073018463B68DBB267
:100274001B01D9B213180A4683F8002300BF0C37B8
:10028400BD465DF8047B704700ED00E000E100E04E
:1002940080B483B000AF786039603B681B881A462D
:1002A4007B681B889A4201DA3B6800E07B68184649
:1002B4000C37BD465DF8047B704780B483B000AF53
:1002C400786039603B681A687B681B689A4201D27F
:1002D4003B6800E07B6818460C37BD465DF8047B3C
:1002E4007047000080B594B000AF78609A4B1B78DB
:1002F400632B01DD01237B644FF0A0435A694FF067
:10030400A0439B691340002B0CBF01230023DBB2E5
:10031400002B40F05B840221786801F0FDF903466C
:10032400002B07D04FF0A0424FF0A0435B6903F0CD
:10033400020353614FF40021786801F0EDF903469C
:10034400002B00F00D81854B9A69844BDB691340C7
:100354001B0C9BB2FB64804B1B784E2B01DD0123ED
:100364003B6400237B61FB6C002B00F0F980FB6C89
:1003740003F00103002B00F0E7807B6903F1207395
:1003840058335B019A68754B5B691340FB63FB6BE5
:1003940003F00103002B1AD07B6903F12073583357
:1003A4005B011A46012393607B680022C3F8A020F6
:1003B4007B6903F1207358335B011A467B6903F1AF
:1003C400207358335B011B6843F400131360FB6B09
:1003D40003F00803002B00F08F807B680C333B6133
:1003E4003B691A787B681A703B695A787B685A7043
:1003F4003B6902331B789AB23B6903331B789BB287
:100404001B029BB213449AB27B685A803B69043343
:100414001B789AB23B6905331B789BB21B029BB2D3
:1004240013449AB27B689A803B6906331B789AB26C
:100434003B6907331B789BB21B029BB213449AB2ED
:100444007B68DA807B680122C3F8A0207B681B7874
:1004540003F01F03012B0BD0022B42D0002B00D042
:1004640042E07B6893E80600786800F07BFF3BE09D
:100474007B681B78212B06D1002300220121786898
:1004840000F0ECFF2FE07B681B78812B2BD17B687D
:100494005B881B12222B26D14A237B837B689A1DFF
:1004A40007F11A0311461846FFF7F2FE03461B88AC
:1004B4001A467B68C3F898207B6803F20A327B688B
:1004C400C3F894207B680222C3F8A0207B68D3F889
:1004D400983000220121786800F0C0FF0123BB633B
:1004E40001E000BF00E000BF7B6903F120735833D3
:1004F4005B011A4608239360FB6B03F01003002B87
:1005040007D07B6903F1207358335B011A4610232B
:100514009360FB6B03F02003002B07D07B6903F18E
:10052400207358335B011A4620239360FB6B03F45A
:100534000053002B08D07B6903F1207358335B010F
:100544001A464FF4005393607B6901337B61FB6C63
:100554005B10FB6407E700BF14050020000800508F
:100564004FF48021786801F0D7F80346002B00F09F
:100574006381B04B9A69AF4BDB6913409BB2FB6458
:1005840000237B61FB6C002B00F05681FB6C03F0B5
:100594000103002B00F047817B6903F1207348338A
:1005A4005B019A68A34B1969A24B586B7B6903F0F2
:1005B4000F0320FA03F3DB0103F080030B43134022
:1005C400FB63FB6B03F00103002B5CD07B6903F03E
:1005D4000F03012202FA03F37B639649954B5A6B8E
:1005E4007B6BDB4313404B637B6903F1207348331C
:1005F4005B011A46012393607B68D3F8A030022B79
:1006040031D17B68D3F89030002B0CD07B6800226A
:10061400C3F890207B68D3F89030002201217868D9
:1006240000F01CFF2FE07B69DBB21946786801F00B
:1006340021F87B680522C3F8A0207B680022DA60D9
:100644007B680022C3F89C207B680022C3F88C20BE
:100654007B69002B17D17B681B7A00220021786804
:1006640000F0FCFE0FE07B68D3F8A030042B04D02C
:100674007B68D3F8A030002B05D17B69DBB2194627
:10068400786800F0F7FFFB6B03F00803002B07D03A
:100694007B6903F1207348335B011A460823936096
:1006A400FB6B03F01003002B07D07B6903F120736D
:1006B40048335B011A4610239360FB6B03F040033D
:1006C400002B07D07B6903F1207348335B011A4682
:1006D40040239360FB6B03F00203002B07D07B697C
:1006E40003F1207348335B011A4602239360FB6BCA
:1006F40003F08003002B00F096807B68D3F89C20E5
:100704007B68D3F898309A4200F262827B68D3F80F
:1007140098207B68D3F89C30D31AFB607B69002B4C
:1007240002D17B681B7A01E07B685B7AFB6107F18D
:100734001C0207F10C0311461846FFF7BEFD0346E1
:100744001B68FB60FB6803339B08BB647B6903F194
:10075400207348335B019B699AB2BB6C9A420ED3F7
:100764007B68D3F89C207B68D3F898309A4206D2F1
:100774007B68D3F89830002B01D0012300E00023DC
:10078400002B3AD07B68D3F898207B68D3F89C3050
:10079400D31AFB607B69002B02D17B681B7A01E0D2
:1007A4007B685B7A3B6207F1200207F10C03114678
:1007B4001846FFF782FD03461B68FB60FB680333A2
:1007C4009B08BB647B68D3F894107B691A46FB686A
:1007D4009BB2786800F022FC7B68D3F89420FB6815
:1007E4001A447B68C3F894207B68D3F89C20FB6888
:1007F4001A447B68C3F89C20A8E77B68D3F8982048
:100804007B68D3F89C309A420DD87B6903F00F03C0
:10081400012202FA03F33B630649064B5A6B3B6B16
:10082400DB4313404B637B6901337B61FB6C5B10DF
:10083400FB64A7E6000800504FF00041786800F020
:100844006BFF0346002B0DD0A84AA84B5B6823F02E
:10085400010353604FF0A0424FF0A0435B6903F0E3
:10086400004353614FF40061786800F055FF03467C
:10087400002B18D09D4B9B6803F00103012B0CBF88
:1008840001230023DBB2002B05D0994A984B1B6847
:1008940043F0010313604FF0A0424FF0A0435B69A3
:1008A40003F4006353614FF48051786800F034FF1F
:1008B4000346002B00F094808C4A8C4B5B6823F039
:1008C400010353604FF0A0434FF484621A614FF068
:1008D400A0431B6903F02003202B0CBF012300233A
:1008E400DBB2002B00D0F2E70023BB60BB68052B12
:1008F40033DCBB6803F1207348335B011A464FF6BF
:100904007F339360BB6803F1207348335B011A465D
:10091400BB6803F1207348335B011B6823F40013A5
:100924001360BB6803F1207358335B011A464FF61A
:100934007F339360BB6803F1207358335B011A461D
:10094400BB6803F1207358335B011B6823F4001365
:100954001360BB680133BB60C8E7644A634BDB695F
:1009640043F00113D361614A604B5B6943F4005364
:1009740043F02B0353615D4A5C4B1B6943F00B034B
:1009840013615A4A594B1B6823F4FE631360594B95
:100994001B6803F00043B3F1004F14BF012300238D
:1009A400DBB2002B14D0534B00221A61514A514B35
:1009B4001B6943F4002313614E4A4E4B1B6943F0F9
:1009C400180313614B4A4B4B1B6943F0C04313613B
:1009D4004FF0A0424FF0A0435B6903F4805353618E
:1009E4004FF40051786800F097FE0346002B4BD07B
:1009F400414A414B1B6823F4FF6323F00703136050
:100A04003A4B9B6803F00603042B0CBF012300231D
:100A1400DBB2002B05D0384A374B1B6843F0030385
:100A24001360324A314B5B6843F48073536006238E
:100A3400FB624FF0A0424FF0A043DB6823F47053F5
:100A4400D3604FF0A0414FF0A043DA68FB6A9B02E9
:100A540003F470531343CB60002300220021786811
:100A640000F030FA002301220021786800F02AFA0D
:100A74007B680022C3F8A0204FF0A0424FF0A043AF
:100A84005B6903F4005353611021786800F044FE5D
:100A94000346002B47D04FF0A0424FF0A0439B6980
:100AA40023F0100393614FF0A0431B6ABB62BB6A3F
:100AB40003F00F037B61BB6A5B0C03F00F03022B93
:100AC4001CD1BA6A47F6F0731340002B23D07B681D
:100AD40003F10C01BB6A1B099BB2C3F30A039BB26B
:100AE4001A46786800F074FA15E000BF0008005058
:100AF400000E0050000B005000090050BB6A5B0C54
:100B040003F00F03062B06D17B680C330822194629
:100B1400786800F05DFA4FF0A0424FF0A0439B6963
:100B240043F0100393610821786800F0F5FD034653
:100B3400002B07D04FF0A0424FF0A0435B6903F0B5
:100B4400080353614FF48011786800F0E5FD034613
:100B5400002B07D04FF0A0424FF0A0435B6903F491
:100B6400801353614FF40011786800F0D5FD0346FB
:100B7400002B07D04FF0A0424FF0A0435B6903F471
:100B8400001353614FF08041786800F0C5FD0346BF
:100B9400002B07D04FF0A0424FF0A0435B6903F055
:100BA400804353610421786800F0B6FD0346002BAE
:100BB4000FD04FF0A0435B687B624FF0A0414FF031
:100BC400A0435A687B6A13434B6002E000BF00E015
:100BD40000BF5037BD4680BD80B586B000AF786099
:100BE400B14AB14B1B6B43F001031363AF4AAF4BE4
:100BF4001B6843F0287343F400331360AB4AAB4BD8
:100C04009B6843F07C7343F440339360A74AA74B3B
:100C14005B6A43F00A1343F42A435362A24AA24B89
:100C24005B6B43F0800353639F4A9F4B5B6C43F4BD
:100C34008043536400214320FFF7FCFA4320FFF76D
:100C4400DFFA4FF0A0424FF0A0439B6823F001036A
:100C540093604FF0A0424FF0A043DB6843F04003A1
:100C6400D3604FF0A0431B69DB43DB0FDBB2002BE7
:100C740000D0F6E74FF0A0424FF0A0431B6943F0C9
:100C8400010313614FF0A0431B6903F00103012B1F
:100C94000CBF01230023DBB2002B00D0F2E74FF09E
:100CA400A0424FF0A0439B6B43F4803393634FF017
:100CB400A0424FF0A043DB6843F08043D36000239D
:100CC400FB75FB7D0E2B0BD84FF0A042FB7D403310
:100CD4009B00134400225A60FB7D0133FB75F0E74F
:100CE4004FF0A0424FF0A0439B6B43F40013936377
:100CF4006F4A6F4B1B6823F0010313606D4A6D4B01
:100D04001B6823F4C05313606A4A6A4B1B6843F0A0
:100D1400030313604FF0A0424FF0A0431B6943F458
:100D2400806313614FF0A0424FF0A0431B6943F06E
:100D3400200313614FF0A0431B6903F02003202B11
:100D44000CBF01230023DBB2002B00D0F2E74FF0ED
:100D5400A04310221A614FF0A0431B6903F0100353
:100D6400102B0CBF01230023DBB2002B00D0F2E7D1
:100D7400504B00221A614F4B00225A614D4B002206
:100D8400DA6100233B613B69052B1CDC3B6903F101
:100D9400207348335B011A46002313603B6903F157
:100DA400207348335B011A46002313613B6903F146
:100DB400207348335B011A464FF67F3393603B69D7
:100DC40001333B61DFE70023FB60FB68052B1CDC80
:100DD400FB6803F1207358335B011A460023136048
:100DE400FB6803F1207358335B011A460023136137
:100DF400FB6803F1207358335B011A464FF67F33C7
:100E04009360FB680133FB60DFE72A4A294B1B69C7
:100E140023F4807313614FF0A04300229A614FF0D2
:100E2400A0436FF080425A614FF0A0424FF0A043BC
:100E34009B6943F0100393614FF0A0414FF0A0432E
:100E44009A691D4B13438B614FF0A0424FF0A043AE
:100E54009B6943F0804343F004039361154A154BA7
:100E64005B6843F0020353604FF0A04380225A6250
:100E74004FF0A043114A9A624FF0A043104AC3F8BE
:100E840004210C4A0B4B5B6823F0020353604FF0C0
:100E9400A0424FF0A0439B6843F00103936000BF5E
:100EA4001837BD4680BD00BF003802400000024034
:100EB400003800500008005000383C80800040009A
:100EC400C000800080B487B000AFF860B9601146FC
:100ED4001A460B46FB711346BB71BB68002B02D14B
:100EE400FB681B7A01E0FB685B7AFB75FB79002BDE
:100EF40034D03649354BDA69BB6803F00F0301205F
:100F040000FA03F39BB21343CB61BB6803F1207374
:100F140048335B011B6803F40043002B0CBF01231F
:100F24000023DBB2002B4AD0BB6803F120734833A3
:100F34005B011846BB6803F1207348335B011A68F0
:100F4400F97DBB799B041943BB689B050B43134391
:100F540043F0805343F40043036030E01B491B4BD0
:100F6400DA69BB6803F00F03012000FA03F31B04E2
:100F74001343CB61BB6803F1207358335B011B68D7
:100F840003F40043002B0CBF01230023DBB2002B2E
:100F940015D0BB6803F1207358335B011846BB6856
:100FA40003F1207358335B011A68F97DBB799B0404
:100FB4000B43134343F0805343F40043036000BFE7
:100FC4001C37BD465DF8047B704700BF0008005025
:100FD40080B489B000AFF860B9601346FB80BB6889
:100FE400FB61FB8803339B087B610023BB61BA6907
:100FF4007B699A420AD2084B1A68FB691A60FB693A
:101004000433FB61BB690133BB61F0E700BF2437E4
:10101400BD465DF8047B70470010005080B489B071
:1010240000AFF860B9607A607B80BB68FB617B8845
:1010340003339B087B610023BB61BA697B699A42D5
:101044000FD27B6803F5A02301331B031A46FB6907
:101054001B681360FB690433FB61BB690133BB612B
:10106400EBE700BF2437BD465DF8047B7047000002
:1010740080B588B000AFF8603B1D83E80600FB88AC
:101084001B12013B0E2B00F2F38001A252F823F055
:10109400D1100008E71000081311000875120008A9
:1010A40075120008D711000875120008751200089F
:1010B40075120008751200087512000875120008F0
:1010C4007512000875120008FD100008FB6803F192
:1010D400A502FB68C3F89420FB681222C3F8982089
:1010E40099E0FB6803F1B702FB68C3F89420FB683E
:1010F4002922C3F898208EE0FB6803F1E002FB6824
:10110400C3F89420FB680C22C3F8982083E0FB8882
:10111400DBB2052B00F2AE8001A252F823F000BF2F
:101124003D110008D311000853110008791100087B
:10113400D3110008D3110008FB6803F58372FB6820
:10114400C3F89420FB680422C3F8982040E0FB68AD
:1011540003F585731A464949F86800F097F8024682
:10116400FB68C3F89820FB6803F58572FB68C3F835
:1011740094202DE0424B1B68FB61414B1B680433F8
:10118400BB613F4B1B6808337B61FA697B6913447D
:10119400FB61FB69002B0FD0FB6803F1EE0208230F
:1011A400F969F86800F0A2F8FB6803F1FE02042371
:1011B400B969F86800F09AF8FB6803F1EC02FB687F
:1011C400C3F89420FB681A22C3F8982000E000BFFB
:1011D40021E02C4A2B4B1B6843F4001313602A4B69
:1011E40000221A61284A284B1B6943F40023136127
:1011F400254A254B1B6943F018031361224A224BED
:101204001B6943F0C04313611F4A1F4B1B6843F41F
:10121400001313602FE0FB68D3F89830002B1DD027
:101224007B89002B1AD0FB680222C3F8A020FB683C
:1012340098337A893A6107F1100211461846FFF78C
:101244003CF803461A68FB68C3F89820FB68D3F897
:10125400983000220121F86800F000F97B89002B06
:1012640009D1002300220121F86800F0F7F802E018
:1012740000BF00E000BF2037BD4680BDFC1C000855
:10128400107AFF1F00090050000B005080B487B093
:1012940000AFF860B9607A6002237B61BB68002B01
:1012A4001DD0BB681B78002B11D07B695A1C7A6156
:1012B4007A681A44BB68591CB9601B7813707B693F
:1012C4005A1C7A617A68134400221A70E9E77B6930
:1012D400DAB27B681A707B68013303221A707B6967
:1012E40018461C37BD465DF8047B704780B487B050
:1012F40000AFF860B9607A60FB700023FB75FA7D7B
:10130400FB789A4228DABB681B0F092B0BD8FB7DAC
:101314005B001A467B681344BA68120FD2B23032AB
:10132400D2B21A700AE0FB7D5B001A467B68134454
:10133400BA68120FD2B23732D2B21A70BB681B012C
:10134400BB60FB7D5B0001337A68134400221A7092
:10135400FB7D0133FB75D2E700BF1C37BD465DF84A
:10136400047B704780B586B000AFF8603B1D83E80E
:1013740006003B7903F06003202B67D0402B65D037
:10138400002B00D063E07B79092B5DD801A252F8D1
:1013940023F000BF4D1400084D1400084D1400083C
:1013A4004D1400084D140008CF130008C1130008A1
:1013B4004D1400084D1400080D1400083B1D93E85B
:1013C4000600F868FFF754FE3FE0FB88DBB203F049
:1013D4007F03FB75204A204B1B6823F4FE631360D4
:1013E4001D491D4B1A68FB7D1B0103F4FE63134367
:1013F4000B60FB680422C3F8A02000230022012113
:10140400F86800F02BF820E0FB881946032301223A
:10141400F868FFF757FDFB88194603230022F86894
:10142400FFF750FDFB88DAB202230021F86800F0D0
:1014340015F8FB680422C3F8A02000230022012130
:10144400F86800F00BF800E000BF00E000BF00BF48
:101454001837BD4680BD00BF0008005080B487B077
:1014640000AFF8607B600B46FB721346BB72FB7ADD
:10147400002B00F0A6807B68002B2FD1BB7A03F1F0
:10148400207348335B011A46BB7A03F12073483357
:101494005B011B6923F0FF5323F4C0131361BB7A70
:1014A40003F1207348335B011A46BB7A03F12073BE
:1014B40048335B011B6943F400231361BB7A03F1D6
:1014C400207348335B011A46BB7A03F12073483317
:1014D4005B011B69DB0CDB04136154E0BB7A002B5A
:1014E40002D1FB681B7A01E0FB685B7A7B61BB7A03
:1014F40003F1207348335B011A46BB7A03F120736E
:1015040048335B011B69DB0CDB041361BB7A03F119
:10151400207348335B011A46BB7A03F120734833C6
:101524005B011B6923F0FF5323F4C01313617B6930
:101534007A689A4207D97B697A68D21AFB68C3F839
:1015440090207B697B60BB7A03F1207348335B0195
:101554001A46BB7A03F1207348335B011B6943F4D9
:1015640000231361BB7A03F1207348335B011946EE
:10157400BB7A03F1207348335B011A697B68C3F3B8
:10158400120313430B61BB7A03F1207348335B01ED
:101594001A46BB7A03F1207348335B011B6843F09E
:1015A400044313607B68002B5CD03149304B5A6B89
:1015B400BB7A03F00F03012000FA03F313434B63D8
:1015C40050E0BB7A03F1207358335B011A46BB7AAF
:1015D40003F1207358335B011B69DB0CDB041361DB
:1015E400BB7A03F1207358335B011A46BB7A03F1CB
:1015F400207358335B011B6923F0FF5323F4C0139A
:101604001361BB7A03F1207358335B011A46BB7A2A
:1016140003F1207358335B011B6943F40023136106
:10162400BB7A03F1207358335B011946BB7A03F18B
:10163400207358335B011A697B68C3F312031343A5
:101644000B61BB7A03F1207358335B011A46BB7AF2
:1016540003F1207358335B011B6843F004431360A8
:1016640001233B6100BF1C37BD465DF8047B704716
:101674000008005080B483B000AF78600B46FB7064
:10168400FB7803F1207348335B011B68002B04DBF8
:10169400FB78002B01D0012300E00023002B0ED0A7
:1016A400FB7803F1207348335B011A46FB7803F19E
:1016B400207348335B011B6823F080431360FB787D
:1016C40003F1207348335B011A46FB7803F120735E
:1016D40048335B011B6843F4001313600D4B002275
:1016E4001A610C4A0B4B1B6943F400231361094A2A
:1016F400084B1B6943F018031361064A054B1B6929
:1017040043F0C043136100BF0C37BD465DF8047B52
:10171400704700BF000B005080B483B000AF786006
:1017240039604FF0A0435A694FF0A0439B691A40B7
:101734003B681A403B689A4205D1184B1B78632BCF
:1017440001DC012300E00023002B12D0134B1B7893
:1017540019464FF0A0435A694FF0A0439B691340C8
:101764000F4A42F821300D4B1B780133DAB20B4B90
:101774001A704FF0A0435A694FF0A0439B691A4076
:101784003B681A403B689A420CBF01230023DBB23A
:1017940018460C37BD465DF8047B704714050020DD
:1017A4008403002080B400AF354A354B1B6C43F0F2
:1017B40080531364334A334B1B6843F480431360F0
:1017C400314A314BD3F8883043F47003C2F888307F
:1017D4002B4A2B4B1B6843F480331360284B1B6844
:1017E40003F40033002B0CBF01230023DBB2002BD6
:1017F40000D0F3E7224B254A5A60214A204B9B68CC
:1018040093601F4A1E4B9B6843F4004393601C4A39
:101814001B4B9B6843F4A0539360194A184B1B68F5
:1018240043F080731360164B1B6803F00073002BA6
:101834000CBF01230023DBB2002B00D0F3E7144BD1
:1018440040F205721A600E4A0D4B9B6823F00303A5
:1018540093600B4A0A4B9B6843F002039360084B66
:101864009B6803F00C03082B14BF01230023DBB295
:10187400002B00D0F3E700BFBD465DF8047B704742
:10188400003802400070004000ED00E004244006EF
:10189400003C024080B400AF0E4A0E4B1B6B43F079
:1018A400020313630B4A0B4B1B6B43F004031363D8
:1018B400094A094B1B6843F480431360064A064BEC
:1018C4001B6843F08053136000BFBD465DF8047B82
:1018D400704700BF0038024000040240F0B583B0F6
:1018E40000AF78607B6840221A727B6802225A72C9
:1018F4007B68284A03F1A50514460FCC286069606B
:10190400AA60EB6023882B827B68234A144603F188
:10191400B70E04F1200C754626460FCE2860696088
:10192400AA60EB6010340EF1100E6445F3D17246D8
:10193400234603CB106051601B7813727B68174AEF
:10194400E03307CA83E807007B68EC3300221A609F
:101954005A609A60DA601A615A611A837B681A22A3
:1019640083F8EC207B68032283F8ED207B680C4A23
:1019740003F58373106818607B680A4A03F20A331C
:1019840011464A22184600F09FF97B6818460C3726
:10199400BD46F0BD1C1D0008301D00085C1D00087C
:1019A400681D00086C1D000880B500AF0248FEF7F2
:1019B40099FC00BF80BD00BF3000002080B400AFA0
:1019C40000BFBD465DF8047B704780B400AFFEE7FE
:1019D40080B400AFFEE780B400AFFEE780B400AF90
:1019E400FEE780B400AF00BFBD465DF8047B7047DE
:1019F40080B400AF00BFBD465DF8047B704780B47F
:101A040000AF00BFBD465DF8047B704780B400AFF3
:101A140000BFBD465DF8047B7047000080B582B00E
:101A240000AF00F07BF8FFF7BDFE00F0ADF8FFF764
:101A340031FF1348FFF7D0F800237B60114B1B697B
:101A440003F40053002B14BF01230023DBB2002B4B
:101A54000CD00D4A0C4B9B6943F0800393610A4AF6
:101A6400094B9B6943F48043936105E0064A064BA6
:101A74009B6943F4000393617B6801337B60DDE77A
:101A840030000020000802400004024080B582B00B
:101A940000AF786039607B68012B07D13B684FF653
:101AA400FF72934202D10348FFF718FF00BF0837C3
:101AB400BD4680BD3000002080B500AF4FF6FF71F9
:101AC4000120FFF7E3FF80BDDFF834D0002103E0FD
:101AD4000C4B5B58435004310B480C4B42189A4250
:101AE400F6D30B4A02E0002342F8043B094B9A4226
:101AF400F9D300F013F800F0C3F8FFF78FFF704735
:101B040000000220C41D0008000000201400002072
:101B14001400002018050020FEE7000080B400AF88
:101B2400164A164BD3F8883043F47003C2F8883051
:101B3400134A134B1B6843F001031360104B00223C
:101B44009A600F4A0E4B1B6823F0847323F480338E
:101B540013600B4B0B4A5A60094A094B1B6823F468
:101B640080231360064B0022DA60044B4FF00062BE
:101B74009A6000BFBD465DF8047B704700ED00E04D
:101B8400003802401030002480B487B000AF002336
:101B94003B6100237B610223FB600023BB600223C3
:101BA4007B60324B9B6803F00C033B613B69042B65
:101BB40007D0082B09D0002B3DD12D4B2D4A1A609C
:101BC4003DE02B4B2C4A1A6039E0284B5B689B0D97
:101BD40003F00103BB60254B5B6803F03F037B60AC
:101BE400BB68002B0CD0244A7B68B2FBF3F31F4A7A
:101BF40052689209C2F3080202FB03F37B610BE013
:101C04001C4A7B68B2FBF3F3184A52689209C2F388
:101C1400080202FB03F37B61144B5B681B0C03F0AB
:101C2400030301335B00FB607A69FB68B2FBF3F3E7
:101C34000F4A136003E00E4B0E4A1A6000BF0B4BB1
:101C44009B681B0903F00F030C4AD35CDBB23B61B6
:101C5400074B1A683B6922FA03F3054A136000BF75
:101C64001C37BD465DF8047B704700BF0038024056
:101C7400000000200024F40000127A000400002078
:101C840070B50D4E0D4CA41BA4100025A54209D11E
:101C94000B4E0C4C00F024F8A41BA4100025A54204
:101CA40005D170BD56F8253098470135EEE756F852
:101CB400253098470135F2E7B81D0008B81D000823
:101CC400B81D0008C01D000810B5431E0A44914207
:101CD40000D110BD11F8014B03F8014FF7E70000E4
:101CE400F8B500BFF8BC08BC9E467047F8B500BF05
:081CF400F8BC08BC9E467047D5
:101CFC0053544D333220437573746F6D2048756D9A
:101D0C00616E20696E746572666163650000000027
:101D1C00120101020000004083045057000201022E
:101D2C000301000009022900010100C0320904006E
:101D3C00000203000000092111010001224A0007E2
:101D4C0005820302000507050103020005000000DF
:101D5C00050F0C0001071002020000000403090427
:101D6C0005010902A1010901A100050919012903B5
:101D7C0015002501950375018102950175058101F9
:101D8C0005010930093109381581257F750895033E
:101D9C008106C0093C05FF09011500250175019557
:0C1DAC0002B12275069501B101C00000D3
:081DB800E9010008BD1A000852
:041DC000C501000851
:101DC4000024F400000000000000000001020304ED
:041DD40006070809ED
:0400000508001ACD08
:00000001FF
