:020000040800F2
:1000000000000220B9190008811800088F180008A4
:10001000951800089B180008A118000800000000AF
:10002000000000000000000000000000A718000809
:10003000B518000800000000C3180008D118000817
:10004000091A0008091A0008091A0008091A000804
:10005000091A0008091A0008091A0008091A0008F4
:10006000091A0008091A0008091A0008091A0008E4
:10007000091A0008091A0008091A0008091A0008D4
:10008000091A0008091A0008091A0008091A0008C4
:10009000091A0008091A0008091A0008091A0008B4
:1000A000091A0008091A0008091A0008091A0008A4
:1000B000091A0008091A0008091A0008091A000894
:1000C000091A0008091A0008091A0008091A000884
:1000D000091A0008091A0008091A0008091A000874
:1000E000091A0008091A0008091A0008091A000864
:1000F000091A0008091A0008091A0008091A000854
:10010000091A0008091A0008091A0008091A000843
:10011000091A0008091A0008091A0008091A000833
:10012000091A0008091A0008091A0008091A000823
:10013000091A00080000000000000000091A000869
:10014000091A0008091A0008091A00086D180008A1
:10015000091A0008091A0008091A0008091A0008F3
:10016000091A0008091A0008091A0008091A0008E3
:10017000091A0008091A0008091A000800000000FE
:1001800000000000091A0008000000000000000044
:10019000091A00080000000000000000091A000809
:1001A000000000000000000000000000091A000824
:1001B000091A0008091A0008091A0008091A000893
:0401C000091A000810
:1001C40010B5054C237833B9044B13B10448AFF38D
:1001D40000800123237010BD1400002000000000E3
:1001E400D01B000808B5034B1BB103490348AFF308
:1001F400008008BD0000000018000020D01B00088B
:1002040080B483B000AF0346FB71094997F9073006
:100214005B0997F9072002F01F02012000FA02F29D
:1002240041F8232000BF0C37BD465DF8047B7047BE
:1002340000E100E080B483B000AF03463960FB7195
:1002440097F90730002B0DDA0F4997F90730DBB225
:1002540003F00F03043B3A68D2B21201D2B20B444A
:100264001A760BE0094A97F9073018463B68DBB267
:100274001B01D9B213180A4683F8002300BF0C37B8
:10028400BD465DF8047B704700ED00E000E100E04E
:1002940080B483B000AF786039603B681B881A462D
:1002A4007B681B889A4201DA3B6800E07B68184649
:1002B4000C37BD465DF8047B7047000080B592B0F2
:1002C40000AF7860994B1B78732B01DD01233B64ED
:1002D4004FF0A0435A694FF0A0439B691340002B91
:1002E4000CBF01230023DBB2002B40F00F8402215A
:1002F400786801F053F90346002B07D04FF0A04271
:100304004FF0A0435B6903F0020353614FF40021F3
:10031400786801F043F90346002B00F00B81834B0E
:100324001B78732B01DD0123FB63814B9A69804B9E
:10033400DB6913401B0C9BB27B6400237B617B6CE9
:10034400002B00F0F7807B6C03F00103002B00F01E
:10035400E5807B6903F1207358335B019A68744B21
:100364005B691340BB63BB6B03F00103002B1AD022
:100374007B6903F1207358335B011A4601239360B0
:100384007B680022C3F8A0207B6903F120735833F3
:100394005B011A467B6903F1207358335B011B68C8
:1003A40043F400131360BB6B03F00803002B00F04D
:1003B4008D807B680C333B613B691A787B681A70CB
:1003C4003B695A787B685A703B6902331B789AB24E
:1003D4003B6903331B789BB21B029BB213449AB252
:1003E4007B685A803B6904331B789AB23B690533B6
:1003F4001B789BB21B029BB213449AB27B689A800F
:100404003B6906331B789AB23B6907331B789BB26E
:100414001B029BB213449AB27B68DA807B68012288
:10042400C3F8A0207B681B7803F01F03012B0BD0BB
:10043400022B40D0002B00D040E07B6893E80600FC
:10044400786800F0CFFE39E07B681B78212B06D159
:10045400002300220121786800F044FF2DE07B682E
:100464001B78812B29D17B685B881B12222B24D11A
:100474004A237B837B689A1D07F11A0311461846A9
:10048400FFF706FF03461B881A467B68C3F89820CB
:100494007B6803F20B327B68C3F894207B680222EA
:1004A400C3F8A0207B68D3F8983000220121786833
:1004B40000F018FF01E000BF00E000BF7B6903F11A
:1004C400207358335B011A4608239360BB6B03F017
:1004D4001003002B07D07B6903F1207358335B01B1
:1004E4001A4610239360BB6B03F02003002B07D044
:1004F4007B6903F1207358335B011A462023936010
:10050400BB6B03F40053002B08D07B6903F1207309
:1005140058335B011A464FF4005393607B690133EF
:100524007B617B6C5B107B6409E700BFA80600203D
:10053400000800504FF48021786801F02FF803463A
:10054400002B00F01581894B9A69884BDB691340B5
:100554009BB27B6400237B617B6C002B00F00881E1
:100564007B6C03F00103002B00F0F8807B6903F13E
:10057400207348335B019A687C4B19697B4B586B39
:100584007B6903F00F0320FA03F3DB0103F080031C
:100594000B431340BB63BB6B03F00103002B65D01B
:1005A4007B6903F00F03012202FA03F37B636F49B3
:1005B4006E4B5A6B7B6BDB4313404B637B6903F1DC
:1005C400207348335B011A46012393607B69002B37
:1005D40046D17B68D3F8A030022B30D17B68D3F8A6
:1005E4009030002B12D07B68D3F890207B68C3F83E
:1005F40098207B680022C3F890207B68D3F8983059
:1006040000220121786800F06DFE2FE07B69DBB2E7
:100614001946786800F070FF7B680522C3F8A020B3
:100624007B680022C3F890207B680022DA607B6834
:100634001B7A00220021786800F054FE16E07B68E3
:10064400D3F8A030042B04D07B68D3F8A030002B5F
:100654000CD17B69DBB21946786800F04DFF05E0E8
:1006640001233B637B68002283F8A520BB6B03F066
:100674000803002B07D07B6903F1207348335B0127
:100684001A4608239360BB6B03F01003002B07D0BA
:100694007B6903F1207348335B011A46102393608E
:1006A400BB6B03F04003002B07D07B6903F120737D
:1006B40048335B011A4640239360BB6B03F002038B
:1006C400002B07D07B6903F1207348335B011A4682
:1006D40002239360BB6B03F08003002B3ED07B6945
:1006E400002B02D17B681B7A01E07B685B7AFB629A
:1006F4007B68D3F89820FB6A9A420BD97B68D3F8BD
:100704009820FB6AD21A7B68C3F890207B68FA6A47
:10071400C3F898207B68D3F894107B691A467B68E9
:10072400D3F898309BB2786800F068FB7B68D3F804
:1007340094207B68D3F898301A447B68C3F89420DB
:100744007B6903F00F03012202FA03F3BB6207493A
:10075400064B5A6BBB6ADB4313404B637B69013323
:100764007B617B6C5B107B64F6E600BF0008005085
:100774004FF00041786800F011FF0346002B0DD0C4
:10078400AA4AAA4B5B6823F0010353604FF0A042CE
:100794004FF0A0435B6903F0004353614FF40061E1
:1007A400786800F0FBFE0346002B1CD09F4B9B682F
:1007B40003F00103012B0CBF01230023DBB2002B48
:1007C40009D07B68042283F8A420994A984B1B68BB
:1007D40043F0010313604FF0A0424FF0A0435B6964
:1007E40003F4006353614FF48051786800F0D6FE3F
:1007F4000346002B00F094808C4A8C4B5B6823F0FA
:10080400010353604FF0A0434FF484621A614FF028
:10081400A0431B6903F02003202B0CBF01230023FA
:10082400DBB2002B00D0F2E70023FB60FB68052B52
:1008340033DCFB6803F1207348335B011A464FF63F
:100844007F339360FB6803F1207348335B011A46DE
:10085400FB6803F1207348335B011B6823F4001326
:100864001360FB6803F1207358335B011A464FF69B
:100874007F339360FB6803F1207358335B011A469E
:10088400FB6803F1207358335B011B6823F40013E6
:100894001360FB680133FB60C8E7644A634BDB69A0
:1008A40043F00113D361614A604B5B6943F4005325
:1008B40043F02B0353615D4A5C4B1B6943F00B030C
:1008C40013615A4A594B1B6823F4FE631360594B56
:1008D4001B6803F00043B3F1004F14BF012300234E
:1008E400DBB2002B14D0534B00221A61514A514BF6
:1008F4001B6943F4002313614E4A4E4B1B6943F0BA
:10090400180313614B4A4B4B1B6943F0C0431361FB
:100914004FF0A0424FF0A0435B6903F4805353614E
:100924004FF40051786800F039FE0346002B4BD099
:10093400414A414B1B6823F4FF6323F00703136010
:100944003A4B9B6803F00603042B0CBF01230023DE
:10095400DBB2002B05D0384A374B1B6843F0030346
:100964001360324A314B5B6843F48073536006234F
:100974007B624FF0A0424FF0A043DB6823F4705336
:10098400D3604FF0A0414FF0A043DA687B6A9B022A
:1009940003F470531343CB600023002200217868D2
:1009A40000F080F9002301220021786800F07AF930
:1009B4007B680022C3F8A0204FF0A0424FF0A04370
:1009C4005B6903F4005353611021786800F0E6FD7D
:1009D4000346002B47D04FF0A0424FF0A0439B6941
:1009E40023F0100393614FF0A0431B6A3B623B6A00
:1009F40003F00F037B613B6A5B0C03F00F03022BD4
:100A04001CD13A6A47F6F0731340002B23D07B685D
:100A140003F10C013B6A1B099BB2C3F30A039BB2AB
:100A24001A46786800F0C4F915E000BF00080050C9
:100A3400000E0050000B0050000900503B6A5B0C94
:100A440003F00F03062B06D17B680C3308221946EA
:100A5400786800F0ADF94FF0A0424FF0A0439B69D5
:100A640043F0100393610821786800F097FD034672
:100A7400002B07D04FF0A0424FF0A0435B6903F076
:100A8400080353614FF48011786800F087FD034632
:100A9400002B07D04FF0A0424FF0A0435B6903F452
:100AA400801353614FF40011786800F077FD03461A
:100AB400002B07D04FF0A0424FF0A0435B6903F432
:100AC400001353614FF08041786800F067FD0346DE
:100AD400002B07D04FF0A0424FF0A0435B6903F016
:100AE400804353610421786800F058FD0346002BCD
:100AF4000DD04FF0A0435B68FB614FF0A0414FF075
:100B0400A0435A68FB6913434B6000E000BF4837B9
:100B1400BD4680BD80B584B000AF78605B4A5B4B56
:100B24001B6B43F001031363594A594B1B6843F091
:100B340028731360564A564B9B6843F07C7393604A
:100B4400534A534B5B6A43F42A2353624F4A4F4B35
:100B54005B6B43F0800353634C4A4C4B5B6C43F434
:100B64008043536400214320FFF764FB4320FFF7D5
:100B740047FB4FF0A0424FF0A0439B6B43F48033FC
:100B840093634FF0A0424FF0A043DB6843F08043EF
:100B9400D3600023FB73FB7B0E2B0BD84FF0A042DA
:100BA400FB7B40339B00134400225A60FB7B0133E0
:100BB400FB73F0E74FF0A0424FF0A0439B6B43F46C
:100BC40000139363334A334B1B6843F003031360EE
:100BD4004FF0A0424FF0A0431B6943F480631361BC
:100BE4004FF0A0424FF0A0431B6943F02003136170
:100BF4004FF0A0431B6903F02003202B0CBF0123FB
:100C04000023DBB2002B00D0F2E74FF0A043102208
:100C14001A614FF0A0431B6903F01003102B0CBFA3
:100C240001230023DBB2002B00D0F2E74FF0A043F6
:100C34006FF080425A614FF0A04300229A614FF056
:100C4400A0414FF0A0439A69134B13438B614FF0BB
:100C5400A04380225A624FF0A043104A9A624FF098
:100C6400A0430F4AC3F804210A4A0A4B5B6823F0E5
:100C7400020353604FF0A0424FF0A0439B6843F03F
:100C84000103936000BF1037BD4680BD00380240A9
:100C9400000002400008005014380CC080004000DE
:100CA400C000800080B487B000AFF860B96011461E
:100CB4001A460B46FB711346BB71BB68002B02D16D
:100CC400FB681B7A01E0FB685B7AFB75FB79002B00
:100CD40034D03649354BDA69BB6803F00F03012081
:100CE40000FA03F39BB21343CB61BB6803F1207397
:100CF40048335B011B6803F40043002B0CBF012342
:100D04000023DBB2002B4AD0BB6803F120734833C5
:100D14005B011846BB6803F1207348335B011A6812
:100D2400F97DBB799B041943BB689B050B431343B3
:100D340043F0805343F40043036030E01B491B4BF2
:100D4400DA69BB6803F00F03012000FA03F31B0404
:100D54001343CB61BB6803F1207358335B011B68F9
:100D640003F40043002B0CBF01230023DBB2002B50
:100D740015D0BB6803F1207358335B011846BB6878
:100D840003F1207358335B011A68F97DBB799B0426
:100D94000B43134343F0805343F40043036000BF09
:100DA4001C37BD465DF8047B704700BF0008005047
:100DB40080B489B000AFF860B9601346FB80BB68AB
:100DC400FB61FB8803339B087B610023BB61BA6929
:100DD4007B699A420AD2084B1A68FB691A60FB695C
:100DE4000433FB61BB690133BB61F0E700BF243707
:100DF400BD465DF8047B70470010005080B489B094
:100E040000AFF860B9607A607B80BB68FB617B8867
:100E140003339B087B610023BB61BA697B699A42F7
:100E24000FD27B6803F5A02301331B031A46FB6929
:100E34001B681360FB690433FB61BB690133BB614D
:100E4400EBE700BF2437BD465DF8047B704780B4F0
:100E540083B000AF786039603B681A687B681B68B0
:100E64009A4201D23B6800E07B6818460C37BD46C5
:100E74005DF8047B7047000080B58AB000AFF8606D
:100E84003B1D83E806009B4B1B78722B01DD01237D
:100E94007B62FB881B12013B0E2B00F2268101A210
:100EA40052F823F0E50E0008FB0E0008270F000897
:100EB400EF100008EF10000851100008EF100008B0
:100EC400EF100008EF100008EF100008EF10000802
:100ED400EF100008EF100008EF100008110F0008D1
:100EE400FB6803F1A602FB68C3F89420FB68122296
:100EF400C3F89820CCE0FB6803F1B802FB68C3F8A0
:100F04009420FB682922C3F89820C1E0FB6803F110
:100F1400E102FB68C3F89420FB680C22C3F8982014
:100F2400B6E0FB88DBB2052B6CD801A252F823F0A3
:100F34004D0F0008630F0008890F0008AF0F000869
:100F44004D1000084D100008FB6803F20712FB68FF
:100F5400C3F89420FB680422C3F8982075E0FB686A
:100F640003F20B131A466449F86800F0CFF80246FE
:100F7400FB68C3F89820FB6803F20B12FB68C3F804
:100F8400942062E0FB6803F20B131A465B49F8688D
:100F940000F0BCF80246FB68C3F89820FB6803F233
:100FA4000B12FB68C3F894204FE0554B1B683B625F
:100FB400534B1B680433FB61514B1B680833BB6103
:100FC4003A6ABB6913443B623B6A002B0FD0FB684F
:100FD40003F1EF020823396AF86800F0C7F8FB68E8
:100FE40003F1FF020423F969F86800F0BFF8FB6815
:100FF40003F1ED02FB68C3F89420FB681A22C3F8DE
:10100400982022E03F4A3F4B1B6843F400131360CF
:101014003D4B00221A613C4A3B4B1B6943F40023BD
:101024001361394A384B1B6943F018031361364A7C
:10103400354B1B6943F0C0431361334A324B1B6881
:1010440043F40013136051E000BF21E02D4A2D4BFF
:101054001B6843F4001313602B4B00221A612A4AC5
:10106400294B1B6943F400231361274A264B1B6950
:1010740043F018031361244A234B1B6943F0C04314
:101084001361214A204B1B6843F4001313602DE0C5
:10109400FB68D3F89830002B1DD07B89002B1AD025
:1010A400FB680222C3F8A020FB6898337A897A612E
:1010B40007F1140211461846FFF7C9FE03461A68E1
:1010C400FB68C3F89820FB68D3F89830002201210C
:1010D400F86800F007F97B89002B07D10023002270
:1010E4000121F86800F0FEF800E000BF2837BD4693
:1010F40080BD00BFA8060020E81B0008F81B0008FC
:10110400107AFF1F00090050000B005080B487B014
:1011140000AFF860B9607A6002237B61BB68002B82
:101124001DD0BB681B78002B11D07B695A1C7A61D7
:101134007A681A44BB68591CB9601B7813707B69C0
:101144005A1C7A617A68134400221A70E9E77B69B1
:10115400DAB27B681A707B68013303221A707B69E8
:1011640018461C37BD465DF8047B704780B487B0D1
:1011740000AFF860B9607A60FB700023FB75FA7DFC
:10118400FB789A4228DABB681B0F092B0BD8FB7D2E
:101194005B001A467B681344BA68120FD2B230322D
:1011A400D2B21A700AE0FB7D5B001A467B681344D6
:1011B400BA68120FD2B23732D2B21A70BB681B01AE
:1011C400BB60FB7D5B0001337A68134400221A7014
:1011D400FB7D0133FB75D2E700BF1C37BD465DF8CC
:1011E400047B704780B586B000AFF8603B1D83E890
:1011F40006003B7903F06003202B6BD0402B69D0B1
:10120400002B00D067E07B79092B61D801A252F84A
:1012140023F000BFD5120008D5120008D51200082B
:10122400D5120008D51200084F1200084112000818
:10123400D5120008D51200088D1200083B1D93E852
:101244000600F868FFF718FE43E0FB88DBB203F002
:101254007F03FB75224A224B1B6823F4FE63136051
:101264001F491F4B1A68FB7D1B0103F4FE631343E4
:101274000B60FB680422C3F8A02000230022012194
:10128400F86800F02FF824E0FB68032283F8A42018
:10129400FB88194603230122F868FFF703FDFB8846
:1012A400194603230022F868FFF7FCFCFB88DAB236
:1012B40002230021F86800F015F8FB680422C3F843
:1012C400A020002300220121F86800F00BF800E0C0
:1012D40000BF00E000BF00BF1837BD4680BD00BF9F
:1012E4000008005080B487B000AFF8607B600B4604
:1012F400FB721346BB72FB7A002B00F0A6807B685E
:10130400002B2FD1BB7A03F1207348335B011A46BB
:10131400BB7A03F1207348335B011B6923F0FF534D
:1013240023F4C0131361BB7A03F1207348335B01C8
:101334001A46BB7A03F1207348335B011B6943F4FB
:1013440000231361BB7A03F1207348335B011A460F
:10135400BB7A03F1207348335B011B69DB0CDB04AC
:10136400136154E0BB7A002B02D1FB681B7A01E0C5
:10137400FB685B7A7B61BB7A03F1207348335B01C2
:101384001A46BB7A03F1207348335B011B69DB0CFB
:10139400DB041361BB7A03F1207348335B011A4603
:1013A400BB7A03F1207348335B011B6923F0FF53BD
:1013B40023F4C01313617B697A689A4207D97B6965
:1013C4007A68D21AFB68C3F890207B697B60BB7A89
:1013D40003F1207348335B011A46BB7A03F120738F
:1013E40048335B011B6943F400231361BB7A03F1A7
:1013F400207348335B011946BB7A03F120734833E9
:101404005B011A697B68C3F3120313430B61BB7A54
:1014140003F1207348335B011A46BB7A03F120734E
:1014240048335B011B6843F0044313607B68002B63
:101434005AD030492F4B5A6BBB7A03F00F0301206B
:1014440000FA03F313434B634EE0BB7A03F12073BA
:1014540058335B011A46BB7A03F1207358335B019E
:101464001B69DB0CDB041361BB7A03F12073583373
:101474005B011A46BB7A03F1207358335B011B6985
:1014840023F0FF5323F4C0131361BB7A03F12073D9
:1014940058335B011A46BB7A03F1207358335B015E
:1014A4001B6943F400231361BB7A03F1207358339F
:1014B4005B011946BB7A03F1207358335B011A6947
:1014C4007B68C3F3120313430B61BB7A03F12073EC
:1014D40058335B011A46BB7A03F1207358335B011E
:1014E4001B6843F00443136000BF1C37BD465DF81E
:1014F400047B70470008005080B483B000AF78606C
:101504000B46FB70FB7803F1207348335B011B68C7
:10151400002B04DBFB78002B01D0012300E0002327
:10152400002B0ED0FB7803F1207348335B011A467D
:10153400FB7803F1207348335B011B6823F080437D
:101544001360FB7803F1207348335B011A46FB7880
:1015540003F1207348335B011B6843F400131360E9
:101564000D4B00221A610C4A0B4B1B6943F40023F8
:101574001361094A084B1B6943F018031361064AB7
:10158400054B1B6943F0C043136100BF0C37BD46D4
:101594005DF8047B704700BF000B005080B483B03B
:1015A40000AF786039604FF0A0435A694FF0A04310
:1015B4009B691A403B681A403B689A4205D1184B14
:1015C4001B78C72B01DC012300E00023002B12D081
:1015D400134B1B7819464FF0A0435A694FF0A043B0
:1015E4009B6913400F4A42F821300D4B1B7801339D
:1015F400DAB20B4B1A704FF0A0435A694FF0A04374
:101604009B691A403B681A403B689A420CBF01230D
:101614000023DBB218460C37BD465DF8047B7047E7
:10162400A80600208803002080B584B000AFF860CD
:10163400B9601346FB80FB6893F8A430032B16D1E2
:10164400FB6893F8A530002B11D1FB68012283F8C5
:10165400A520FB68BA68C3F89420FA88FB68C3F82D
:101664009820FB8801220121F868FFF73BFE00BFA8
:101674001037BD4680BD000080B400AF354A354BFD
:101684001B6C43F080531364334A334B1B6843F49D
:1016940080431360314A314BD3F8883043F47003EC
:1016A400C2F888302B4A2B4B1B6843F480331360F9
:1016B400284B1B6803F40033002B0CBF01230023C9
:1016C400DBB2002B00D0F3E7224B254A5A60214AB3
:1016D400204B9B6893601F4A1E4B9B6843F4004356
:1016E40093601C4A1B4B9B6843F4A0539360194AB4
:1016F400184B1B6843F080731360164B1B6803F090
:101704000073002B0CBF01230023DBB2002B00D09D
:10171400F3E7144B40F205721A600E4A0D4B9B68B6
:1017240023F0030393600B4A0A4B9B6843F00203C4
:101734009360084B9B6803F00C03082B14BF012330
:101744000023DBB2002B00D0F3E700BFBD465DF8F9
:10175400047B7047003802400070004000ED00E058
:1017640004244006003C024080B400AF0E4A0E4BF5
:101774001B6B43F0020313630B4A0B4B1B6B43F0CD
:1017840004031363094A094B1B6843F48043136041
:10179400064A064B1B6843F08053136000BFBD46E6
:1017A4005DF8047B704700BF00380240000402402B
:1017B400B0B582B000AF78607B6840221A727B6853
:1017C40004225A727B68234A03F1A60514460FCCFF
:1017D40028606960AA60EB6023882B827B681E4ABC
:1017E40003F1B80415460FCD0FC40FCD0FC495E80F
:1017F400070003C422707B68184A03F1E10413460E
:1018040007CB20606160A2607B68ED3300221A6020
:101814005A609A60DA601A615A611A837B681A22E4
:1018240083F8ED207B68032283F8EE207B680C4A62
:1018340003F20713106818607B680A4A03F20B333B
:1018440011464A22184600F0B5F97B681846083755
:10185400BD46B0BD181C00082C1C0008581C00080C
:10186400641C0008681C000880B500AF0248FEF73D
:1018740025FD00BF80BD00BF3000002080B400AF54
:1018840000BFBD465DF8047B704780B400AFFEE73F
:1018940080B400AFFEE780B400AFFEE780B400AFD1
:1018A400FEE780B400AF00BFBD465DF8047B70471F
:1018B40080B400AF00BFBD465DF8047B704780B4C0
:1018C40000AF00BFBD465DF8047B704780B400AF35
:1018D40000BFBD465DF8047B7047000080B582B050
:1018E40000AF00F091F8FFF7C7FE00F0C3F8FFF770
:1018F4003BFF1C48FFF70EF900237B601A4B1B6962
:1019040003F40053002B14BF01230023DBB2002B8C
:1019140009D0164A154B9B6943F080039361144B1D
:1019240001221A7005E0114A104B9B6943F400032D
:1019340093610D4B1B6903F40053002B01D0022269
:1019440000E000220B4B1A70094B1B78002B04D0CB
:10195400042208490348FFF767FE7B6801337B6074
:10196400CCE700BF30000020000802400004024021
:10197400B0060020AC06002080B582B000AF7860CD
:1019840039607B68012B07D13B684FF6FF729342A5
:1019940002D10348FFF70CFF00BF0837BD4680BDE6
:1019A4003000002080B500AF4FF6FF710120FFF733
:1019B400E3FF80BDDFF834D0002103E00C4B5B581B
:1019C400435004310B480C4B42189A42F6D30B4A4D
:1019D40002E0002342F8043B094B9A42F9D300F099
:1019E40013F800F0C3F8FFF779FF704700000220F6
:1019F400C01C000800000020140000201400002077
:101A0400B4060020FEE7000080B400AF164A164B6F
:101A1400D3F8883043F47003C2F88830134A134B68
:101A24001B6843F001031360104B00229A600F4AB5
:101A34000E4B1B6823F0847323F4803313600B4B29
:101A44000B4A5A60094A094B1B6823F4802313602C
:101A5400064B0022DA60044B4FF000629A6000BF2C
:101A6400BD465DF8047B704700ED00E0003802409D
:101A74001030002480B487B000AF00233B61002302
:101A84007B610223FB600023BB6002237B60324B3B
:101A94009B6803F00C033B613B69042B07D0082BC4
:101AA40009D0002B3DD12D4B2D4A1A603DE02B4B24
:101AB4002C4A1A6039E0284B5B689B0D03F0010344
:101AC400BB60254B5B6803F03F037B60BB68002B66
:101AD4000CD0244A7B68B2FBF3F31F4A5268920984
:101AE400C2F3080202FB03F37B610BE01C4A7B6830
:101AF400B2FBF3F3184A52689209C2F3080202FBDC
:101B040003F37B61144B5B681B0C03F00303013389
:101B14005B00FB607A69FB68B2FBF3F30F4A136066
:101B240003E00E4B0E4A1A6000BF0B4B9B681B0967
:101B340003F00F030C4AD35CDBB23B61074B1A681A
:101B44003B6922FA03F3054A136000BF1C37BD4604
:101B54005DF8047B704700BF00380240000000209D
:101B64000024F40000127A000400002070B50D4E29
:101B74000D4CA41BA4100025A54209D10B4E0C4CFE
:101B840000F024F8A41BA4100025A54205D170BDC3
:101B940056F8253098470135EEE756F82530984732
:101BA4000135F2E7B41C0008B41C0008B41C00089A
:101BB400BC1C000810B5431E0A44914200D110BD5C
:101BC40011F8014B03F8014FF7E70000F8B500BF27
:101BD400F8BC08BC9E467047F8B500BFF8BC08BC0A
:041BE4009E46704762
:101BE80042757474466C7566666B696E73000000A6
:101BF80053544D333220437573746F6D2048756D9F
:101C0800616E20696E74657266616365000000002C
:101C18001201010200000040830450570002010233
:101C28000301000009022900010100C03209040073
:101C3800000203000000092111010001224A0007E7
:101C480005810304000507050103040005000000E1
:101C5800050F0C000107100202000000040309042C
:101C680005010902A1010901A100050919012903BA
:101C780015002501950375018102950175058101FE
:101C880005010930093109381581257F7508950343
:101C98008106C0093C05FF0901150025017501955C
:0C1CA80002B12275069501B101C00000D8
:081CB400E9010008A91900086C
:041CBC00C501000856
:101CC0000024F400000000000000000001020304F2
:041CD00006070809F2
:04000005080019B91D
:00000001FF
